{
	"variables_modifiers.sol": {
		"variables_modifiers": {
			"abi": [
				{
					"inputs": [],
					"name": "address1",
					"outputs": [
						{
							"internalType": "address",
							"name": "",
							"type": "address"
						}
					],
					"stateMutability": "view",
					"type": "function"
				},
				{
					"inputs": [],
					"name": "address2",
					"outputs": [
						{
							"internalType": "address",
							"name": "",
							"type": "address"
						}
					],
					"stateMutability": "view",
					"type": "function"
				},
				{
					"inputs": [],
					"name": "b",
					"outputs": [
						{
							"internalType": "uint8",
							"name": "",
							"type": "uint8"
						}
					],
					"stateMutability": "view",
					"type": "function"
				},
				{
					"inputs": [],
					"name": "boolean_true",
					"outputs": [
						{
							"internalType": "bool",
							"name": "",
							"type": "bool"
						}
					],
					"stateMutability": "view",
					"type": "function"
				},
				{
					"inputs": [],
					"name": "d",
					"outputs": [
						{
							"internalType": "int8",
							"name": "",
							"type": "int8"
						}
					],
					"stateMutability": "view",
					"type": "function"
				},
				{
					"inputs": [],
					"name": "displayState",
					"outputs": [
						{
							"internalType": "enum variables_modifiers.options",
							"name": "",
							"type": "uint8"
						}
					],
					"stateMutability": "view",
					"type": "function"
				},
				{
					"inputs": [],
					"name": "hashing_keccak256",
					"outputs": [
						{
							"internalType": "bytes32",
							"name": "",
							"type": "bytes32"
						}
					],
					"stateMutability": "view",
					"type": "function"
				},
				{
					"inputs": [],
					"name": "hashing_ripemd160",
					"outputs": [
						{
							"internalType": "bytes20",
							"name": "",
							"type": "bytes20"
						}
					],
					"stateMutability": "view",
					"type": "function"
				},
				{
					"inputs": [],
					"name": "hashing_sha256",
					"outputs": [
						{
							"internalType": "bytes32",
							"name": "",
							"type": "bytes32"
						}
					],
					"stateMutability": "view",
					"type": "function"
				},
				{
					"inputs": [],
					"name": "str_public",
					"outputs": [
						{
							"internalType": "string",
							"name": "",
							"type": "string"
						}
					],
					"stateMutability": "view",
					"type": "function"
				},
				{
					"inputs": [],
					"name": "turnOff",
					"outputs": [],
					"stateMutability": "nonpayable",
					"type": "function"
				},
				{
					"inputs": [],
					"name": "turnOn",
					"outputs": [],
					"stateMutability": "nonpayable",
					"type": "function"
				}
			],
			"devdoc": {
				"kind": "dev",
				"methods": {},
				"version": 1
			},
			"evm": {
				"assembly": "    /* \"variables_modifiers.sol\":60:1583  contract variables_modifiers {\r... */\n  mstore(0x40, 0x80)\n    /* \"variables_modifiers.sol\":202:203  3 */\n  0x03\n    /* \"variables_modifiers.sol\":185:203  uint8 public b = 3 */\n  0x01\n  exp(0x0100, 0x00)\n  dup2\n  sload\n  dup2\n  0xff\n  mul\n  not\n  and\n  swap1\n  dup4\n  0xff\n  and\n  mul\n  or\n  swap1\n  sstore\n  pop\n    /* \"variables_modifiers.sol\":281:284  -32 */\n  0xffffffffffffffffffffffffffffffffffffffffffffffffffffffffffffffe0\n    /* \"variables_modifiers.sol\":265:284  int8 public d = -32 */\n  0x03\n  exp(0x0100, 0x00)\n  dup2\n  sload\n  dup2\n  0xff\n  mul\n  not\n  and\n  swap1\n  dup4\n  0x00\n  signextend\n  0xff\n  and\n  mul\n  or\n  swap1\n  sstore\n  pop\n    /* \"variables_modifiers.sol\":299:301  65 */\n  0x41\n    /* \"variables_modifiers.sol\":291:301  int e = 65 */\n  0x04\n  sstore\n    /* \"variables_modifiers.sol\":351:395  string public str_public = \"Esto es publico\" */\n  mload(0x40)\n  dup1\n  0x40\n  add\n  0x40\n  mstore\n  dup1\n  0x0f\n  dup2\n  mstore\n  0x20\n  add\n  0x4573746f206573207075626c69636f0000000000000000000000000000000000\n  dup2\n  mstore\n  pop\n  0x06\n  swap1\n  dup1\n  mload\n  swap1\n  0x20\n  add\n  swap1\n  tag_1\n  swap3\n  swap2\n  swap1\n  tag_2\n  jump\t// in\ntag_1:\n  pop\n    /* \"variables_modifiers.sol\":402:448  string private str_private = \"Esto es privado\" */\n  mload(0x40)\n  dup1\n  0x40\n  add\n  0x40\n  mstore\n  dup1\n  0x0f\n  dup2\n  mstore\n  0x20\n  add\n  0x4573746f206573207072697661646f0000000000000000000000000000000000\n  dup2\n  mstore\n  pop\n  0x07\n  swap1\n  dup1\n  mload\n  swap1\n  0x20\n  add\n  swap1\n  tag_3\n  swap3\n  swap2\n  swap1\n  tag_2\n  jump\t// in\ntag_3:\n  pop\n    /* \"variables_modifiers.sol\":529:533  true */\n  0x01\n    /* \"variables_modifiers.sol\":502:533  bool public boolean_true = true */\n  0x08\n  exp(0x0100, 0x01)\n  dup2\n  sload\n  dup2\n  0xff\n  mul\n  not\n  and\n  swap1\n  dup4\n  iszero\n  iszero\n  mul\n  or\n  swap1\n  sstore\n  pop\n    /* \"variables_modifiers.sol\":569:574  false */\n  0x00\n    /* \"variables_modifiers.sol\":540:574  bool private boolean_false = false */\n  0x08\n  exp(0x0100, 0x02)\n  dup2\n  sload\n  dup2\n  0xff\n  mul\n  not\n  and\n  swap1\n  dup4\n  iszero\n  iszero\n  mul\n  or\n  swap1\n  sstore\n  pop\n    /* \"variables_modifiers.sol\":754:785  abi.encodePacked(\"Hello World\") */\n  add(0x20, mload(0x40))\n  tag_4\n  swap1\n  tag_5\n  jump\t// in\ntag_4:\n  mload(0x40)\n  0x20\n  dup2\n  dup4\n  sub\n  sub\n  dup2\n  mstore\n  swap1\n  0x40\n  mstore\n    /* \"variables_modifiers.sol\":744:786  keccak256(abi.encodePacked(\"Hello World\")) */\n  dup1\n  mload\n  swap1\n  0x20\n  add\n  keccak256\n    /* \"variables_modifiers.sol\":709:786  bytes32 public hashing_keccak256 = keccak256(abi.encodePacked(\"Hello World\")) */\n  0x0b\n  sstore\n    /* \"variables_modifiers.sol\":915:954  sha256(abi.encodePacked(\"Hello World\")) */\n  0x02\n    /* \"variables_modifiers.sol\":922:953  abi.encodePacked(\"Hello World\") */\n  add(0x20, mload(0x40))\n  tag_6\n  swap1\n  tag_5\n  jump\t// in\ntag_6:\n  mload(0x40)\n  0x20\n  dup2\n  dup4\n  sub\n  sub\n  dup2\n  mstore\n  swap1\n  0x40\n  mstore\n    /* \"variables_modifiers.sol\":915:954  sha256(abi.encodePacked(\"Hello World\")) */\n  mload(0x40)\n  tag_7\n  swap2\n  swap1\n  tag_8\n  jump\t// in\ntag_7:\n  0x20\n  mload(0x40)\n  dup1\n  dup4\n  sub\n  dup2\n  dup6\n  gas\n  staticcall\n  iszero\n  dup1\n  iszero\n  tag_10\n  jumpi\n  returndatasize\n  0x00\n  dup1\n  returndatacopy\n  revert(0x00, returndatasize)\ntag_10:\n  pop\n  pop\n  pop\n  mload(0x40)\n  returndatasize\n  not(0x1f)\n  0x1f\n  dup3\n  add\n  and\n  dup3\n  add\n  dup1\n  0x40\n  mstore\n  pop\n  dup2\n  add\n  swap1\n  tag_11\n  swap2\n  swap1\n  tag_12\n  jump\t// in\ntag_11:\n    /* \"variables_modifiers.sol\":883:954  bytes32 public hashing_sha256 = sha256(abi.encodePacked(\"Hello World\")) */\n  0x0c\n  sstore\n    /* \"variables_modifiers.sol\":996:1038  ripemd160(abi.encodePacked(\"Hello World\")) */\n  0x03\n    /* \"variables_modifiers.sol\":1006:1037  abi.encodePacked(\"Hello World\") */\n  add(0x20, mload(0x40))\n  tag_13\n  swap1\n  tag_5\n  jump\t// in\ntag_13:\n  mload(0x40)\n  0x20\n  dup2\n  dup4\n  sub\n  sub\n  dup2\n  mstore\n  swap1\n  0x40\n  mstore\n    /* \"variables_modifiers.sol\":996:1038  ripemd160(abi.encodePacked(\"Hello World\")) */\n  mload(0x40)\n  tag_14\n  swap2\n  swap1\n  tag_8\n  jump\t// in\ntag_14:\n  0x20\n  mload(0x40)\n  dup1\n  dup4\n  sub\n  dup2\n  dup6\n  gas\n  staticcall\n  iszero\n  dup1\n  iszero\n  tag_16\n  jumpi\n  returndatasize\n  0x00\n  dup1\n  returndatacopy\n  revert(0x00, returndatasize)\ntag_16:\n  pop\n  pop\n  pop\n  shl(0x60, mload(mload(0x40)))\n    /* \"variables_modifiers.sol\":961:1038  bytes20 public hashing_ripemd160 = ripemd160(abi.encodePacked(\"Hello World\")) */\n  0x0d\n  exp(0x0100, 0x00)\n  dup2\n  sload\n  dup2\n  0xffffffffffffffffffffffffffffffffffffffff\n  mul\n  not\n  and\n  swap1\n  dup4\n  0x60\n  shr\n  mul\n  or\n  swap1\n  sstore\n  pop\n    /* \"variables_modifiers.sol\":1123:1165  0x617F2E2fD72FD9D5503197092aC168c91465E7f2 */\n  0x617f2e2fd72fd9d5503197092ac168c91465e7f2\n    /* \"variables_modifiers.sol\":1097:1165  address public address1 = 0x617F2E2fD72FD9D5503197092aC168c91465E7f2 */\n  0x0f\n  exp(0x0100, 0x00)\n  dup2\n  sload\n  dup2\n  0xffffffffffffffffffffffffffffffffffffffff\n  mul\n  not\n  and\n  swap1\n  dup4\n  0xffffffffffffffffffffffffffffffffffffffff\n  and\n  mul\n  or\n  swap1\n  sstore\n  pop\n    /* \"variables_modifiers.sol\":1198:1208  msg.sender */\n  caller\n    /* \"variables_modifiers.sol\":1172:1208  address public address2 = msg.sender */\n  0x10\n  exp(0x0100, 0x00)\n  dup2\n  sload\n  dup2\n  0xffffffffffffffffffffffffffffffffffffffff\n  mul\n  not\n  and\n  swap1\n  dup4\n  0xffffffffffffffffffffffffffffffffffffffff\n  and\n  mul\n  or\n  swap1\n  sstore\n  pop\n    /* \"variables_modifiers.sol\":60:1583  contract variables_modifiers {\r... */\n  callvalue\n  dup1\n  iszero\n  tag_17\n  jumpi\n  0x00\n  dup1\n  revert\ntag_17:\n  pop\n  jump(tag_18)\ntag_2:\n  dup3\n  dup1\n  sload\n  tag_19\n  swap1\n  tag_20\n  jump\t// in\ntag_19:\n  swap1\n  0x00\n  mstore\n  keccak256(0x00, 0x20)\n  swap1\n  0x1f\n  add\n  0x20\n  swap1\n  div\n  dup2\n  add\n  swap3\n  dup3\n  tag_22\n  jumpi\n  0x00\n  dup6\n  sstore\n  jump(tag_21)\ntag_22:\n  dup3\n  0x1f\n  lt\n  tag_23\n  jumpi\n  dup1\n  mload\n  not(0xff)\n  and\n  dup4\n  dup1\n  add\n  or\n  dup6\n  sstore\n  jump(tag_21)\ntag_23:\n  dup3\n  dup1\n  add\n  0x01\n  add\n  dup6\n  sstore\n  dup3\n  iszero\n  tag_21\n  jumpi\n  swap2\n  dup3\n  add\ntag_24:\n  dup3\n  dup2\n  gt\n  iszero\n  tag_25\n  jumpi\n  dup3\n  mload\n  dup3\n  sstore\n  swap2\n  0x20\n  add\n  swap2\n  swap1\n  0x01\n  add\n  swap1\n  jump(tag_24)\ntag_25:\ntag_21:\n  pop\n  swap1\n  pop\n  tag_26\n  swap2\n  swap1\n  tag_27\n  jump\t// in\ntag_26:\n  pop\n  swap1\n  jump\t// out\ntag_27:\ntag_28:\n  dup1\n  dup3\n  gt\n  iszero\n  tag_29\n  jumpi\n  0x00\n  dup2\n  0x00\n  swap1\n  sstore\n  pop\n  0x01\n  add\n  jump(tag_28)\ntag_29:\n  pop\n  swap1\n  jump\t// out\n    /* \"#utility.yul\":7:150   */\ntag_31:\n    /* \"#utility.yul\":64:69   */\n  0x00\n    /* \"#utility.yul\":95:101   */\n  dup2\n    /* \"#utility.yul\":89:102   */\n  mload\n    /* \"#utility.yul\":80:102   */\n  swap1\n  pop\n    /* \"#utility.yul\":111:144   */\n  tag_33\n    /* \"#utility.yul\":138:143   */\n  dup2\n    /* \"#utility.yul\":111:144   */\n  tag_34\n  jump\t// in\ntag_33:\n    /* \"#utility.yul\":7:150   */\n  swap3\n  swap2\n  pop\n  pop\n  jump\t// out\n    /* \"#utility.yul\":156:507   */\ntag_12:\n    /* \"#utility.yul\":226:232   */\n  0x00\n    /* \"#utility.yul\":275:277   */\n  0x20\n    /* \"#utility.yul\":263:272   */\n  dup3\n    /* \"#utility.yul\":254:261   */\n  dup5\n    /* \"#utility.yul\":250:273   */\n  sub\n    /* \"#utility.yul\":246:278   */\n  slt\n    /* \"#utility.yul\":243:362   */\n  iszero\n  tag_36\n  jumpi\n    /* \"#utility.yul\":281:360   */\n  tag_37\n  tag_38\n  jump\t// in\ntag_37:\n    /* \"#utility.yul\":243:362   */\ntag_36:\n    /* \"#utility.yul\":401:402   */\n  0x00\n    /* \"#utility.yul\":426:490   */\n  tag_39\n    /* \"#utility.yul\":482:489   */\n  dup5\n    /* \"#utility.yul\":473:479   */\n  dup3\n    /* \"#utility.yul\":462:471   */\n  dup6\n    /* \"#utility.yul\":458:480   */\n  add\n    /* \"#utility.yul\":426:490   */\n  tag_31\n  jump\t// in\ntag_39:\n    /* \"#utility.yul\":416:490   */\n  swap2\n  pop\n    /* \"#utility.yul\":372:500   */\n  pop\n    /* \"#utility.yul\":156:507   */\n  swap3\n  swap2\n  pop\n  pop\n  jump\t// out\n    /* \"#utility.yul\":513:886   */\ntag_40:\n    /* \"#utility.yul\":617:620   */\n  0x00\n    /* \"#utility.yul\":645:683   */\n  tag_42\n    /* \"#utility.yul\":677:682   */\n  dup3\n    /* \"#utility.yul\":645:683   */\n  tag_43\n  jump\t// in\ntag_42:\n    /* \"#utility.yul\":699:787   */\n  tag_44\n    /* \"#utility.yul\":780:786   */\n  dup2\n    /* \"#utility.yul\":775:778   */\n  dup6\n    /* \"#utility.yul\":699:787   */\n  tag_45\n  jump\t// in\ntag_44:\n    /* \"#utility.yul\":692:787   */\n  swap4\n  pop\n    /* \"#utility.yul\":796:848   */\n  tag_46\n    /* \"#utility.yul\":841:847   */\n  dup2\n    /* \"#utility.yul\":836:839   */\n  dup6\n    /* \"#utility.yul\":829:833   */\n  0x20\n    /* \"#utility.yul\":822:827   */\n  dup7\n    /* \"#utility.yul\":818:834   */\n  add\n    /* \"#utility.yul\":796:848   */\n  tag_47\n  jump\t// in\ntag_46:\n    /* \"#utility.yul\":873:879   */\n  dup1\n    /* \"#utility.yul\":868:871   */\n  dup5\n    /* \"#utility.yul\":864:880   */\n  add\n    /* \"#utility.yul\":857:880   */\n  swap2\n  pop\n    /* \"#utility.yul\":621:886   */\n  pop\n    /* \"#utility.yul\":513:886   */\n  swap3\n  swap2\n  pop\n  pop\n  jump\t// out\n    /* \"#utility.yul\":892:1294   */\ntag_48:\n    /* \"#utility.yul\":1052:1055   */\n  0x00\n    /* \"#utility.yul\":1073:1158   */\n  tag_50\n    /* \"#utility.yul\":1155:1157   */\n  0x0b\n    /* \"#utility.yul\":1150:1153   */\n  dup4\n    /* \"#utility.yul\":1073:1158   */\n  tag_51\n  jump\t// in\ntag_50:\n    /* \"#utility.yul\":1066:1158   */\n  swap2\n  pop\n    /* \"#utility.yul\":1167:1260   */\n  tag_52\n    /* \"#utility.yul\":1256:1259   */\n  dup3\n    /* \"#utility.yul\":1167:1260   */\n  tag_53\n  jump\t// in\ntag_52:\n    /* \"#utility.yul\":1285:1287   */\n  0x0b\n    /* \"#utility.yul\":1280:1283   */\n  dup3\n    /* \"#utility.yul\":1276:1288   */\n  add\n    /* \"#utility.yul\":1269:1288   */\n  swap1\n  pop\n    /* \"#utility.yul\":892:1294   */\n  swap2\n  swap1\n  pop\n  jump\t// out\n    /* \"#utility.yul\":1300:1571   */\ntag_8:\n    /* \"#utility.yul\":1430:1433   */\n  0x00\n    /* \"#utility.yul\":1452:1545   */\n  tag_55\n    /* \"#utility.yul\":1541:1544   */\n  dup3\n    /* \"#utility.yul\":1532:1538   */\n  dup5\n    /* \"#utility.yul\":1452:1545   */\n  tag_40\n  jump\t// in\ntag_55:\n    /* \"#utility.yul\":1445:1545   */\n  swap2\n  pop\n    /* \"#utility.yul\":1562:1565   */\n  dup2\n    /* \"#utility.yul\":1555:1565   */\n  swap1\n  pop\n    /* \"#utility.yul\":1300:1571   */\n  swap3\n  swap2\n  pop\n  pop\n  jump\t// out\n    /* \"#utility.yul\":1577:1958   */\ntag_5:\n    /* \"#utility.yul\":1762:1765   */\n  0x00\n    /* \"#utility.yul\":1784:1932   */\n  tag_57\n    /* \"#utility.yul\":1928:1931   */\n  dup3\n    /* \"#utility.yul\":1784:1932   */\n  tag_48\n  jump\t// in\ntag_57:\n    /* \"#utility.yul\":1777:1932   */\n  swap2\n  pop\n    /* \"#utility.yul\":1949:1952   */\n  dup2\n    /* \"#utility.yul\":1942:1952   */\n  swap1\n  pop\n    /* \"#utility.yul\":1577:1958   */\n  swap2\n  swap1\n  pop\n  jump\t// out\n    /* \"#utility.yul\":2045:2143   */\ntag_43:\n    /* \"#utility.yul\":2096:2102   */\n  0x00\n    /* \"#utility.yul\":2130:2135   */\n  dup2\n    /* \"#utility.yul\":2124:2136   */\n  mload\n    /* \"#utility.yul\":2114:2136   */\n  swap1\n  pop\n    /* \"#utility.yul\":2045:2143   */\n  swap2\n  swap1\n  pop\n  jump\t// out\n    /* \"#utility.yul\":2149:2296   */\ntag_45:\n    /* \"#utility.yul\":2250:2261   */\n  0x00\n    /* \"#utility.yul\":2287:2290   */\n  dup2\n    /* \"#utility.yul\":2272:2290   */\n  swap1\n  pop\n    /* \"#utility.yul\":2149:2296   */\n  swap3\n  swap2\n  pop\n  pop\n  jump\t// out\n    /* \"#utility.yul\":2302:2450   */\ntag_51:\n    /* \"#utility.yul\":2404:2415   */\n  0x00\n    /* \"#utility.yul\":2441:2444   */\n  dup2\n    /* \"#utility.yul\":2426:2444   */\n  swap1\n  pop\n    /* \"#utility.yul\":2302:2450   */\n  swap3\n  swap2\n  pop\n  pop\n  jump\t// out\n    /* \"#utility.yul\":2456:2533   */\ntag_63:\n    /* \"#utility.yul\":2493:2500   */\n  0x00\n    /* \"#utility.yul\":2522:2527   */\n  dup2\n    /* \"#utility.yul\":2511:2527   */\n  swap1\n  pop\n    /* \"#utility.yul\":2456:2533   */\n  swap2\n  swap1\n  pop\n  jump\t// out\n    /* \"#utility.yul\":2539:2846   */\ntag_47:\n    /* \"#utility.yul\":2607:2608   */\n  0x00\n    /* \"#utility.yul\":2617:2730   */\ntag_66:\n    /* \"#utility.yul\":2631:2637   */\n  dup4\n    /* \"#utility.yul\":2628:2629   */\n  dup2\n    /* \"#utility.yul\":2625:2638   */\n  lt\n    /* \"#utility.yul\":2617:2730   */\n  iszero\n  tag_68\n  jumpi\n    /* \"#utility.yul\":2716:2717   */\n  dup1\n    /* \"#utility.yul\":2711:2714   */\n  dup3\n    /* \"#utility.yul\":2707:2718   */\n  add\n    /* \"#utility.yul\":2701:2719   */\n  mload\n    /* \"#utility.yul\":2697:2698   */\n  dup2\n    /* \"#utility.yul\":2692:2695   */\n  dup5\n    /* \"#utility.yul\":2688:2699   */\n  add\n    /* \"#utility.yul\":2681:2720   */\n  mstore\n    /* \"#utility.yul\":2653:2655   */\n  0x20\n    /* \"#utility.yul\":2650:2651   */\n  dup2\n    /* \"#utility.yul\":2646:2656   */\n  add\n    /* \"#utility.yul\":2641:2656   */\n  swap1\n  pop\n    /* \"#utility.yul\":2617:2730   */\n  jump(tag_66)\ntag_68:\n    /* \"#utility.yul\":2748:2754   */\n  dup4\n    /* \"#utility.yul\":2745:2746   */\n  dup2\n    /* \"#utility.yul\":2742:2755   */\n  gt\n    /* \"#utility.yul\":2739:2840   */\n  iszero\n  tag_69\n  jumpi\n    /* \"#utility.yul\":2828:2829   */\n  0x00\n    /* \"#utility.yul\":2819:2825   */\n  dup5\n    /* \"#utility.yul\":2814:2817   */\n  dup5\n    /* \"#utility.yul\":2810:2826   */\n  add\n    /* \"#utility.yul\":2803:2830   */\n  mstore\n    /* \"#utility.yul\":2739:2840   */\ntag_69:\n    /* \"#utility.yul\":2588:2846   */\n  pop\n    /* \"#utility.yul\":2539:2846   */\n  pop\n  pop\n  pop\n  jump\t// out\n    /* \"#utility.yul\":2852:3172   */\ntag_20:\n    /* \"#utility.yul\":2896:2902   */\n  0x00\n    /* \"#utility.yul\":2933:2934   */\n  0x02\n    /* \"#utility.yul\":2927:2931   */\n  dup3\n    /* \"#utility.yul\":2923:2935   */\n  div\n    /* \"#utility.yul\":2913:2935   */\n  swap1\n  pop\n    /* \"#utility.yul\":2980:2981   */\n  0x01\n    /* \"#utility.yul\":2974:2978   */\n  dup3\n    /* \"#utility.yul\":2970:2982   */\n  and\n    /* \"#utility.yul\":3001:3019   */\n  dup1\n    /* \"#utility.yul\":2991:3072   */\n  tag_71\n  jumpi\n    /* \"#utility.yul\":3057:3061   */\n  0x7f\n    /* \"#utility.yul\":3049:3055   */\n  dup3\n    /* \"#utility.yul\":3045:3062   */\n  and\n    /* \"#utility.yul\":3035:3062   */\n  swap2\n  pop\n    /* \"#utility.yul\":2991:3072   */\ntag_71:\n    /* \"#utility.yul\":3119:3121   */\n  0x20\n    /* \"#utility.yul\":3111:3117   */\n  dup3\n    /* \"#utility.yul\":3108:3122   */\n  lt\n    /* \"#utility.yul\":3088:3106   */\n  dup2\n    /* \"#utility.yul\":3085:3123   */\n  eq\n    /* \"#utility.yul\":3082:3166   */\n  iszero\n  tag_72\n  jumpi\n    /* \"#utility.yul\":3138:3156   */\n  tag_73\n  tag_74\n  jump\t// in\ntag_73:\n    /* \"#utility.yul\":3082:3166   */\ntag_72:\n    /* \"#utility.yul\":2903:3172   */\n  pop\n    /* \"#utility.yul\":2852:3172   */\n  swap2\n  swap1\n  pop\n  jump\t// out\n    /* \"#utility.yul\":3178:3358   */\ntag_74:\n    /* \"#utility.yul\":3226:3303   */\n  0x4e487b7100000000000000000000000000000000000000000000000000000000\n    /* \"#utility.yul\":3223:3224   */\n  0x00\n    /* \"#utility.yul\":3216:3304   */\n  mstore\n    /* \"#utility.yul\":3323:3327   */\n  0x22\n    /* \"#utility.yul\":3320:3321   */\n  0x04\n    /* \"#utility.yul\":3313:3328   */\n  mstore\n    /* \"#utility.yul\":3347:3351   */\n  0x24\n    /* \"#utility.yul\":3344:3345   */\n  0x00\n    /* \"#utility.yul\":3337:3352   */\n  revert\n    /* \"#utility.yul\":3487:3604   */\ntag_38:\n    /* \"#utility.yul\":3596:3597   */\n  0x00\n    /* \"#utility.yul\":3593:3594   */\n  dup1\n    /* \"#utility.yul\":3586:3598   */\n  revert\n    /* \"#utility.yul\":3610:3771   */\ntag_53:\n    /* \"#utility.yul\":3750:3763   */\n  0x48656c6c6f20576f726c64000000000000000000000000000000000000000000\n    /* \"#utility.yul\":3746:3747   */\n  0x00\n    /* \"#utility.yul\":3738:3744   */\n  dup3\n    /* \"#utility.yul\":3734:3748   */\n  add\n    /* \"#utility.yul\":3727:3764   */\n  mstore\n    /* \"#utility.yul\":3610:3771   */\n  pop\n  jump\t// out\n    /* \"#utility.yul\":3777:3899   */\ntag_34:\n    /* \"#utility.yul\":3850:3874   */\n  tag_81\n    /* \"#utility.yul\":3868:3873   */\n  dup2\n    /* \"#utility.yul\":3850:3874   */\n  tag_63\n  jump\t// in\ntag_81:\n    /* \"#utility.yul\":3843:3848   */\n  dup2\n    /* \"#utility.yul\":3840:3875   */\n  eq\n    /* \"#utility.yul\":3830:3893   */\n  tag_82\n  jumpi\n    /* \"#utility.yul\":3889:3890   */\n  0x00\n    /* \"#utility.yul\":3886:3887   */\n  dup1\n    /* \"#utility.yul\":3879:3891   */\n  revert\n    /* \"#utility.yul\":3830:3893   */\ntag_82:\n    /* \"#utility.yul\":3777:3899   */\n  pop\n  jump\t// out\n    /* \"variables_modifiers.sol\":60:1583  contract variables_modifiers {\r... */\ntag_18:\n  dataSize(sub_0)\n  dup1\n  dataOffset(sub_0)\n  0x00\n  codecopy\n  0x00\n  return\nstop\n\nsub_0: assembly {\n        /* \"variables_modifiers.sol\":60:1583  contract variables_modifiers {\r... */\n      mstore(0x40, 0x80)\n      callvalue\n      dup1\n      iszero\n      tag_1\n      jumpi\n      0x00\n      dup1\n      revert\n    tag_1:\n      pop\n      jumpi(tag_2, lt(calldatasize, 0x04))\n      shr(0xe0, calldataload(0x00))\n      dup1\n      0x8a054ac2\n      gt\n      tag_15\n      jumpi\n      dup1\n      0x8a054ac2\n      eq\n      tag_9\n      jumpi\n      dup1\n      0x9eea4a3a\n      eq\n      tag_10\n      jumpi\n      dup1\n      0xaf10c810\n      eq\n      tag_11\n      jumpi\n      dup1\n      0xb83d07b7\n      eq\n      tag_12\n      jumpi\n      dup1\n      0xba33ed7d\n      eq\n      tag_13\n      jumpi\n      dup1\n      0xc7109d04\n      eq\n      tag_14\n      jumpi\n      jump(tag_2)\n    tag_15:\n      dup1\n      0x2b73648d\n      eq\n      tag_3\n      jumpi\n      dup1\n      0x312eef29\n      eq\n      tag_4\n      jumpi\n      dup1\n      0x3a36399e\n      eq\n      tag_5\n      jumpi\n      dup1\n      0x4df7e3d0\n      eq\n      tag_6\n      jumpi\n      dup1\n      0x7272eea1\n      eq\n      tag_7\n      jumpi\n      dup1\n      0x7a68ef7f\n      eq\n      tag_8\n      jumpi\n    tag_2:\n      0x00\n      dup1\n      revert\n        /* \"variables_modifiers.sol\":709:786  bytes32 public hashing_keccak256 = keccak256(abi.encodePacked(\"Hello World\")) */\n    tag_3:\n      tag_16\n      tag_17\n      jump\t// in\n    tag_16:\n      mload(0x40)\n      tag_18\n      swap2\n      swap1\n      tag_19\n      jump\t// in\n    tag_18:\n      mload(0x40)\n      dup1\n      swap2\n      sub\n      swap1\n      return\n        /* \"variables_modifiers.sol\":502:533  bool public boolean_true = true */\n    tag_4:\n      tag_20\n      tag_21\n      jump\t// in\n    tag_20:\n      mload(0x40)\n      tag_22\n      swap2\n      swap1\n      tag_23\n      jump\t// in\n    tag_22:\n      mload(0x40)\n      dup1\n      swap2\n      sub\n      swap1\n      return\n        /* \"variables_modifiers.sol\":1097:1165  address public address1 = 0x617F2E2fD72FD9D5503197092aC168c91465E7f2 */\n    tag_5:\n      tag_24\n      tag_25\n      jump\t// in\n    tag_24:\n      mload(0x40)\n      tag_26\n      swap2\n      swap1\n      tag_27\n      jump\t// in\n    tag_26:\n      mload(0x40)\n      dup1\n      swap2\n      sub\n      swap1\n      return\n        /* \"variables_modifiers.sol\":185:203  uint8 public b = 3 */\n    tag_6:\n      tag_28\n      tag_29\n      jump\t// in\n    tag_28:\n      mload(0x40)\n      tag_30\n      swap2\n      swap1\n      tag_31\n      jump\t// in\n    tag_30:\n      mload(0x40)\n      dup1\n      swap2\n      sub\n      swap1\n      return\n        /* \"variables_modifiers.sol\":1492:1576  function displayState() public view returns (options){\r... */\n    tag_7:\n      tag_32\n      tag_33\n      jump\t// in\n    tag_32:\n      mload(0x40)\n      tag_34\n      swap2\n      swap1\n      tag_35\n      jump\t// in\n    tag_34:\n      mload(0x40)\n      dup1\n      swap2\n      sub\n      swap1\n      return\n        /* \"variables_modifiers.sol\":961:1038  bytes20 public hashing_ripemd160 = ripemd160(abi.encodePacked(\"Hello World\")) */\n    tag_8:\n      tag_36\n      tag_37\n      jump\t// in\n    tag_36:\n      mload(0x40)\n      tag_38\n      swap2\n      swap1\n      tag_39\n      jump\t// in\n    tag_38:\n      mload(0x40)\n      dup1\n      swap2\n      sub\n      swap1\n      return\n        /* \"variables_modifiers.sol\":265:284  int8 public d = -32 */\n    tag_9:\n      tag_40\n      tag_41\n      jump\t// in\n    tag_40:\n      mload(0x40)\n      tag_42\n      swap2\n      swap1\n      tag_43\n      jump\t// in\n    tag_42:\n      mload(0x40)\n      dup1\n      swap2\n      sub\n      swap1\n      return\n        /* \"variables_modifiers.sol\":1172:1208  address public address2 = msg.sender */\n    tag_10:\n      tag_44\n      tag_45\n      jump\t// in\n    tag_44:\n      mload(0x40)\n      tag_46\n      swap2\n      swap1\n      tag_27\n      jump\t// in\n    tag_46:\n      mload(0x40)\n      dup1\n      swap2\n      sub\n      swap1\n      return\n        /* \"variables_modifiers.sol\":1420:1484  function turnOff() public {\r... */\n    tag_11:\n      tag_47\n      tag_48\n      jump\t// in\n    tag_47:\n      stop\n        /* \"variables_modifiers.sol\":351:395  string public str_public = \"Esto es publico\" */\n    tag_12:\n      tag_49\n      tag_50\n      jump\t// in\n    tag_49:\n      mload(0x40)\n      tag_51\n      swap2\n      swap1\n      tag_52\n      jump\t// in\n    tag_51:\n      mload(0x40)\n      dup1\n      swap2\n      sub\n      swap1\n      return\n        /* \"variables_modifiers.sol\":1350:1412  function turnOn() public {\r... */\n    tag_13:\n      tag_53\n      tag_54\n      jump\t// in\n    tag_53:\n      stop\n        /* \"variables_modifiers.sol\":883:954  bytes32 public hashing_sha256 = sha256(abi.encodePacked(\"Hello World\")) */\n    tag_14:\n      tag_55\n      tag_56\n      jump\t// in\n    tag_55:\n      mload(0x40)\n      tag_57\n      swap2\n      swap1\n      tag_19\n      jump\t// in\n    tag_57:\n      mload(0x40)\n      dup1\n      swap2\n      sub\n      swap1\n      return\n        /* \"variables_modifiers.sol\":709:786  bytes32 public hashing_keccak256 = keccak256(abi.encodePacked(\"Hello World\")) */\n    tag_17:\n      sload(0x0b)\n      dup2\n      jump\t// out\n        /* \"variables_modifiers.sol\":502:533  bool public boolean_true = true */\n    tag_21:\n      0x08\n      0x01\n      swap1\n      sload\n      swap1\n      0x0100\n      exp\n      swap1\n      div\n      0xff\n      and\n      dup2\n      jump\t// out\n        /* \"variables_modifiers.sol\":1097:1165  address public address1 = 0x617F2E2fD72FD9D5503197092aC168c91465E7f2 */\n    tag_25:\n      0x0f\n      0x00\n      swap1\n      sload\n      swap1\n      0x0100\n      exp\n      swap1\n      div\n      0xffffffffffffffffffffffffffffffffffffffff\n      and\n      dup2\n      jump\t// out\n        /* \"variables_modifiers.sol\":185:203  uint8 public b = 3 */\n    tag_29:\n      0x01\n      0x00\n      swap1\n      sload\n      swap1\n      0x0100\n      exp\n      swap1\n      div\n      0xff\n      and\n      dup2\n      jump\t// out\n        /* \"variables_modifiers.sol\":1492:1576  function displayState() public view returns (options){\r... */\n    tag_33:\n        /* \"variables_modifiers.sol\":1537:1544  options */\n      0x00\n        /* \"variables_modifiers.sol\":1563:1568  state */\n      0x10\n      0x14\n      swap1\n      sload\n      swap1\n      0x0100\n      exp\n      swap1\n      div\n      0xff\n      and\n        /* \"variables_modifiers.sol\":1556:1568  return state */\n      swap1\n      pop\n        /* \"variables_modifiers.sol\":1492:1576  function displayState() public view returns (options){\r... */\n      swap1\n      jump\t// out\n        /* \"variables_modifiers.sol\":961:1038  bytes20 public hashing_ripemd160 = ripemd160(abi.encodePacked(\"Hello World\")) */\n    tag_37:\n      0x0d\n      0x00\n      swap1\n      sload\n      swap1\n      0x0100\n      exp\n      swap1\n      div\n      0x60\n      shl\n      dup2\n      jump\t// out\n        /* \"variables_modifiers.sol\":265:284  int8 public d = -32 */\n    tag_41:\n      0x03\n      0x00\n      swap1\n      sload\n      swap1\n      0x0100\n      exp\n      swap1\n      div\n      0x00\n      signextend\n      dup2\n      jump\t// out\n        /* \"variables_modifiers.sol\":1172:1208  address public address2 = msg.sender */\n    tag_45:\n      0x10\n      0x00\n      swap1\n      sload\n      swap1\n      0x0100\n      exp\n      swap1\n      div\n      0xffffffffffffffffffffffffffffffffffffffff\n      and\n      dup2\n      jump\t// out\n        /* \"variables_modifiers.sol\":1420:1484  function turnOff() public {\r... */\n    tag_48:\n        /* \"variables_modifiers.sol\":1465:1476  options.OFF */\n      0x01\n        /* \"variables_modifiers.sol\":1457:1462  state */\n      0x10\n      0x14\n        /* \"variables_modifiers.sol\":1457:1476  state = options.OFF */\n      0x0100\n      exp\n      dup2\n      sload\n      dup2\n      0xff\n      mul\n      not\n      and\n      swap1\n      dup4\n      0x01\n      dup2\n      gt\n      iszero\n      tag_60\n      jumpi\n      tag_61\n      tag_62\n      jump\t// in\n    tag_61:\n    tag_60:\n      mul\n      or\n      swap1\n      sstore\n      pop\n        /* \"variables_modifiers.sol\":1420:1484  function turnOff() public {\r... */\n      jump\t// out\n        /* \"variables_modifiers.sol\":351:395  string public str_public = \"Esto es publico\" */\n    tag_50:\n      0x06\n      dup1\n      sload\n      tag_63\n      swap1\n      tag_64\n      jump\t// in\n    tag_63:\n      dup1\n      0x1f\n      add\n      0x20\n      dup1\n      swap2\n      div\n      mul\n      0x20\n      add\n      mload(0x40)\n      swap1\n      dup2\n      add\n      0x40\n      mstore\n      dup1\n      swap3\n      swap2\n      swap1\n      dup2\n      dup2\n      mstore\n      0x20\n      add\n      dup3\n      dup1\n      sload\n      tag_65\n      swap1\n      tag_64\n      jump\t// in\n    tag_65:\n      dup1\n      iszero\n      tag_66\n      jumpi\n      dup1\n      0x1f\n      lt\n      tag_67\n      jumpi\n      0x0100\n      dup1\n      dup4\n      sload\n      div\n      mul\n      dup4\n      mstore\n      swap2\n      0x20\n      add\n      swap2\n      jump(tag_66)\n    tag_67:\n      dup3\n      add\n      swap2\n      swap1\n      0x00\n      mstore\n      keccak256(0x00, 0x20)\n      swap1\n    tag_68:\n      dup2\n      sload\n      dup2\n      mstore\n      swap1\n      0x01\n      add\n      swap1\n      0x20\n      add\n      dup1\n      dup4\n      gt\n      tag_68\n      jumpi\n      dup3\n      swap1\n      sub\n      0x1f\n      and\n      dup3\n      add\n      swap2\n    tag_66:\n      pop\n      pop\n      pop\n      pop\n      pop\n      dup2\n      jump\t// out\n        /* \"variables_modifiers.sol\":1350:1412  function turnOn() public {\r... */\n    tag_54:\n        /* \"variables_modifiers.sol\":1394:1404  options.ON */\n      0x00\n        /* \"variables_modifiers.sol\":1386:1391  state */\n      0x10\n      0x14\n        /* \"variables_modifiers.sol\":1386:1404  state = options.ON */\n      0x0100\n      exp\n      dup2\n      sload\n      dup2\n      0xff\n      mul\n      not\n      and\n      swap1\n      dup4\n      0x01\n      dup2\n      gt\n      iszero\n      tag_70\n      jumpi\n      tag_71\n      tag_62\n      jump\t// in\n    tag_71:\n    tag_70:\n      mul\n      or\n      swap1\n      sstore\n      pop\n        /* \"variables_modifiers.sol\":1350:1412  function turnOn() public {\r... */\n      jump\t// out\n        /* \"variables_modifiers.sol\":883:954  bytes32 public hashing_sha256 = sha256(abi.encodePacked(\"Hello World\")) */\n    tag_56:\n      sload(0x0c)\n      dup2\n      jump\t// out\n        /* \"#utility.yul\":7:125   */\n    tag_73:\n        /* \"#utility.yul\":94:118   */\n      tag_75\n        /* \"#utility.yul\":112:117   */\n      dup2\n        /* \"#utility.yul\":94:118   */\n      tag_76\n      jump\t// in\n    tag_75:\n        /* \"#utility.yul\":89:92   */\n      dup3\n        /* \"#utility.yul\":82:119   */\n      mstore\n        /* \"#utility.yul\":7:125   */\n      pop\n      pop\n      jump\t// out\n        /* \"#utility.yul\":131:240   */\n    tag_77:\n        /* \"#utility.yul\":212:233   */\n      tag_79\n        /* \"#utility.yul\":227:232   */\n      dup2\n        /* \"#utility.yul\":212:233   */\n      tag_80\n      jump\t// in\n    tag_79:\n        /* \"#utility.yul\":207:210   */\n      dup3\n        /* \"#utility.yul\":200:234   */\n      mstore\n        /* \"#utility.yul\":131:240   */\n      pop\n      pop\n      jump\t// out\n        /* \"#utility.yul\":246:364   */\n    tag_81:\n        /* \"#utility.yul\":333:357   */\n      tag_83\n        /* \"#utility.yul\":351:356   */\n      dup2\n        /* \"#utility.yul\":333:357   */\n      tag_84\n      jump\t// in\n    tag_83:\n        /* \"#utility.yul\":328:331   */\n      dup3\n        /* \"#utility.yul\":321:358   */\n      mstore\n        /* \"#utility.yul\":246:364   */\n      pop\n      pop\n      jump\t// out\n        /* \"#utility.yul\":370:488   */\n    tag_85:\n        /* \"#utility.yul\":457:481   */\n      tag_87\n        /* \"#utility.yul\":475:480   */\n      dup2\n        /* \"#utility.yul\":457:481   */\n      tag_88\n      jump\t// in\n    tag_87:\n        /* \"#utility.yul\":452:455   */\n      dup3\n        /* \"#utility.yul\":445:482   */\n      mstore\n        /* \"#utility.yul\":370:488   */\n      pop\n      pop\n      jump\t// out\n        /* \"#utility.yul\":494:641   */\n    tag_89:\n        /* \"#utility.yul\":589:634   */\n      tag_91\n        /* \"#utility.yul\":628:633   */\n      dup2\n        /* \"#utility.yul\":589:634   */\n      tag_92\n      jump\t// in\n    tag_91:\n        /* \"#utility.yul\":584:587   */\n      dup3\n        /* \"#utility.yul\":577:635   */\n      mstore\n        /* \"#utility.yul\":494:641   */\n      pop\n      pop\n      jump\t// out\n        /* \"#utility.yul\":647:756   */\n    tag_93:\n        /* \"#utility.yul\":728:749   */\n      tag_95\n        /* \"#utility.yul\":743:748   */\n      dup2\n        /* \"#utility.yul\":728:749   */\n      tag_96\n      jump\t// in\n    tag_95:\n        /* \"#utility.yul\":723:726   */\n      dup3\n        /* \"#utility.yul\":716:750   */\n      mstore\n        /* \"#utility.yul\":647:756   */\n      pop\n      pop\n      jump\t// out\n        /* \"#utility.yul\":762:1126   */\n    tag_97:\n        /* \"#utility.yul\":850:853   */\n      0x00\n        /* \"#utility.yul\":878:917   */\n      tag_99\n        /* \"#utility.yul\":911:916   */\n      dup3\n        /* \"#utility.yul\":878:917   */\n      tag_100\n      jump\t// in\n    tag_99:\n        /* \"#utility.yul\":933:1004   */\n      tag_101\n        /* \"#utility.yul\":997:1003   */\n      dup2\n        /* \"#utility.yul\":992:995   */\n      dup6\n        /* \"#utility.yul\":933:1004   */\n      tag_102\n      jump\t// in\n    tag_101:\n        /* \"#utility.yul\":926:1004   */\n      swap4\n      pop\n        /* \"#utility.yul\":1013:1065   */\n      tag_103\n        /* \"#utility.yul\":1058:1064   */\n      dup2\n        /* \"#utility.yul\":1053:1056   */\n      dup6\n        /* \"#utility.yul\":1046:1050   */\n      0x20\n        /* \"#utility.yul\":1039:1044   */\n      dup7\n        /* \"#utility.yul\":1035:1051   */\n      add\n        /* \"#utility.yul\":1013:1065   */\n      tag_104\n      jump\t// in\n    tag_103:\n        /* \"#utility.yul\":1090:1119   */\n      tag_105\n        /* \"#utility.yul\":1112:1118   */\n      dup2\n        /* \"#utility.yul\":1090:1119   */\n      tag_106\n      jump\t// in\n    tag_105:\n        /* \"#utility.yul\":1085:1088   */\n      dup5\n        /* \"#utility.yul\":1081:1120   */\n      add\n        /* \"#utility.yul\":1074:1120   */\n      swap2\n      pop\n        /* \"#utility.yul\":854:1126   */\n      pop\n        /* \"#utility.yul\":762:1126   */\n      swap3\n      swap2\n      pop\n      pop\n      jump\t// out\n        /* \"#utility.yul\":1132:1244   */\n    tag_107:\n        /* \"#utility.yul\":1215:1237   */\n      tag_109\n        /* \"#utility.yul\":1231:1236   */\n      dup2\n        /* \"#utility.yul\":1215:1237   */\n      tag_110\n      jump\t// in\n    tag_109:\n        /* \"#utility.yul\":1210:1213   */\n      dup3\n        /* \"#utility.yul\":1203:1238   */\n      mstore\n        /* \"#utility.yul\":1132:1244   */\n      pop\n      pop\n      jump\t// out\n        /* \"#utility.yul\":1250:1472   */\n    tag_27:\n        /* \"#utility.yul\":1343:1347   */\n      0x00\n        /* \"#utility.yul\":1381:1383   */\n      0x20\n        /* \"#utility.yul\":1370:1379   */\n      dup3\n        /* \"#utility.yul\":1366:1384   */\n      add\n        /* \"#utility.yul\":1358:1384   */\n      swap1\n      pop\n        /* \"#utility.yul\":1394:1465   */\n      tag_112\n        /* \"#utility.yul\":1462:1463   */\n      0x00\n        /* \"#utility.yul\":1451:1460   */\n      dup4\n        /* \"#utility.yul\":1447:1464   */\n      add\n        /* \"#utility.yul\":1438:1444   */\n      dup5\n        /* \"#utility.yul\":1394:1465   */\n      tag_73\n      jump\t// in\n    tag_112:\n        /* \"#utility.yul\":1250:1472   */\n      swap3\n      swap2\n      pop\n      pop\n      jump\t// out\n        /* \"#utility.yul\":1478:1688   */\n    tag_23:\n        /* \"#utility.yul\":1565:1569   */\n      0x00\n        /* \"#utility.yul\":1603:1605   */\n      0x20\n        /* \"#utility.yul\":1592:1601   */\n      dup3\n        /* \"#utility.yul\":1588:1606   */\n      add\n        /* \"#utility.yul\":1580:1606   */\n      swap1\n      pop\n        /* \"#utility.yul\":1616:1681   */\n      tag_114\n        /* \"#utility.yul\":1678:1679   */\n      0x00\n        /* \"#utility.yul\":1667:1676   */\n      dup4\n        /* \"#utility.yul\":1663:1680   */\n      add\n        /* \"#utility.yul\":1654:1660   */\n      dup5\n        /* \"#utility.yul\":1616:1681   */\n      tag_77\n      jump\t// in\n    tag_114:\n        /* \"#utility.yul\":1478:1688   */\n      swap3\n      swap2\n      pop\n      pop\n      jump\t// out\n        /* \"#utility.yul\":1694:1916   */\n    tag_39:\n        /* \"#utility.yul\":1787:1791   */\n      0x00\n        /* \"#utility.yul\":1825:1827   */\n      0x20\n        /* \"#utility.yul\":1814:1823   */\n      dup3\n        /* \"#utility.yul\":1810:1828   */\n      add\n        /* \"#utility.yul\":1802:1828   */\n      swap1\n      pop\n        /* \"#utility.yul\":1838:1909   */\n      tag_116\n        /* \"#utility.yul\":1906:1907   */\n      0x00\n        /* \"#utility.yul\":1895:1904   */\n      dup4\n        /* \"#utility.yul\":1891:1908   */\n      add\n        /* \"#utility.yul\":1882:1888   */\n      dup5\n        /* \"#utility.yul\":1838:1909   */\n      tag_81\n      jump\t// in\n    tag_116:\n        /* \"#utility.yul\":1694:1916   */\n      swap3\n      swap2\n      pop\n      pop\n      jump\t// out\n        /* \"#utility.yul\":1922:2144   */\n    tag_19:\n        /* \"#utility.yul\":2015:2019   */\n      0x00\n        /* \"#utility.yul\":2053:2055   */\n      0x20\n        /* \"#utility.yul\":2042:2051   */\n      dup3\n        /* \"#utility.yul\":2038:2056   */\n      add\n        /* \"#utility.yul\":2030:2056   */\n      swap1\n      pop\n        /* \"#utility.yul\":2066:2137   */\n      tag_118\n        /* \"#utility.yul\":2134:2135   */\n      0x00\n        /* \"#utility.yul\":2123:2132   */\n      dup4\n        /* \"#utility.yul\":2119:2136   */\n      add\n        /* \"#utility.yul\":2110:2116   */\n      dup5\n        /* \"#utility.yul\":2066:2137   */\n      tag_85\n      jump\t// in\n    tag_118:\n        /* \"#utility.yul\":1922:2144   */\n      swap3\n      swap2\n      pop\n      pop\n      jump\t// out\n        /* \"#utility.yul\":2150:2388   */\n    tag_35:\n        /* \"#utility.yul\":2251:2255   */\n      0x00\n        /* \"#utility.yul\":2289:2291   */\n      0x20\n        /* \"#utility.yul\":2278:2287   */\n      dup3\n        /* \"#utility.yul\":2274:2292   */\n      add\n        /* \"#utility.yul\":2266:2292   */\n      swap1\n      pop\n        /* \"#utility.yul\":2302:2381   */\n      tag_120\n        /* \"#utility.yul\":2378:2379   */\n      0x00\n        /* \"#utility.yul\":2367:2376   */\n      dup4\n        /* \"#utility.yul\":2363:2380   */\n      add\n        /* \"#utility.yul\":2354:2360   */\n      dup5\n        /* \"#utility.yul\":2302:2381   */\n      tag_89\n      jump\t// in\n    tag_120:\n        /* \"#utility.yul\":2150:2388   */\n      swap3\n      swap2\n      pop\n      pop\n      jump\t// out\n        /* \"#utility.yul\":2394:2604   */\n    tag_43:\n        /* \"#utility.yul\":2481:2485   */\n      0x00\n        /* \"#utility.yul\":2519:2521   */\n      0x20\n        /* \"#utility.yul\":2508:2517   */\n      dup3\n        /* \"#utility.yul\":2504:2522   */\n      add\n        /* \"#utility.yul\":2496:2522   */\n      swap1\n      pop\n        /* \"#utility.yul\":2532:2597   */\n      tag_122\n        /* \"#utility.yul\":2594:2595   */\n      0x00\n        /* \"#utility.yul\":2583:2592   */\n      dup4\n        /* \"#utility.yul\":2579:2596   */\n      add\n        /* \"#utility.yul\":2570:2576   */\n      dup5\n        /* \"#utility.yul\":2532:2597   */\n      tag_93\n      jump\t// in\n    tag_122:\n        /* \"#utility.yul\":2394:2604   */\n      swap3\n      swap2\n      pop\n      pop\n      jump\t// out\n        /* \"#utility.yul\":2610:2923   */\n    tag_52:\n        /* \"#utility.yul\":2723:2727   */\n      0x00\n        /* \"#utility.yul\":2761:2763   */\n      0x20\n        /* \"#utility.yul\":2750:2759   */\n      dup3\n        /* \"#utility.yul\":2746:2764   */\n      add\n        /* \"#utility.yul\":2738:2764   */\n      swap1\n      pop\n        /* \"#utility.yul\":2810:2819   */\n      dup2\n        /* \"#utility.yul\":2804:2808   */\n      dup2\n        /* \"#utility.yul\":2800:2820   */\n      sub\n        /* \"#utility.yul\":2796:2797   */\n      0x00\n        /* \"#utility.yul\":2785:2794   */\n      dup4\n        /* \"#utility.yul\":2781:2798   */\n      add\n        /* \"#utility.yul\":2774:2821   */\n      mstore\n        /* \"#utility.yul\":2838:2916   */\n      tag_124\n        /* \"#utility.yul\":2911:2915   */\n      dup2\n        /* \"#utility.yul\":2902:2908   */\n      dup5\n        /* \"#utility.yul\":2838:2916   */\n      tag_97\n      jump\t// in\n    tag_124:\n        /* \"#utility.yul\":2830:2916   */\n      swap1\n      pop\n        /* \"#utility.yul\":2610:2923   */\n      swap3\n      swap2\n      pop\n      pop\n      jump\t// out\n        /* \"#utility.yul\":2929:3143   */\n    tag_31:\n        /* \"#utility.yul\":3018:3022   */\n      0x00\n        /* \"#utility.yul\":3056:3058   */\n      0x20\n        /* \"#utility.yul\":3045:3054   */\n      dup3\n        /* \"#utility.yul\":3041:3059   */\n      add\n        /* \"#utility.yul\":3033:3059   */\n      swap1\n      pop\n        /* \"#utility.yul\":3069:3136   */\n      tag_126\n        /* \"#utility.yul\":3133:3134   */\n      0x00\n        /* \"#utility.yul\":3122:3131   */\n      dup4\n        /* \"#utility.yul\":3118:3135   */\n      add\n        /* \"#utility.yul\":3109:3115   */\n      dup5\n        /* \"#utility.yul\":3069:3136   */\n      tag_107\n      jump\t// in\n    tag_126:\n        /* \"#utility.yul\":2929:3143   */\n      swap3\n      swap2\n      pop\n      pop\n      jump\t// out\n        /* \"#utility.yul\":3149:3248   */\n    tag_100:\n        /* \"#utility.yul\":3201:3207   */\n      0x00\n        /* \"#utility.yul\":3235:3240   */\n      dup2\n        /* \"#utility.yul\":3229:3241   */\n      mload\n        /* \"#utility.yul\":3219:3241   */\n      swap1\n      pop\n        /* \"#utility.yul\":3149:3248   */\n      swap2\n      swap1\n      pop\n      jump\t// out\n        /* \"#utility.yul\":3254:3423   */\n    tag_102:\n        /* \"#utility.yul\":3338:3349   */\n      0x00\n        /* \"#utility.yul\":3372:3378   */\n      dup3\n        /* \"#utility.yul\":3367:3370   */\n      dup3\n        /* \"#utility.yul\":3360:3379   */\n      mstore\n        /* \"#utility.yul\":3412:3416   */\n      0x20\n        /* \"#utility.yul\":3407:3410   */\n      dup3\n        /* \"#utility.yul\":3403:3417   */\n      add\n        /* \"#utility.yul\":3388:3417   */\n      swap1\n      pop\n        /* \"#utility.yul\":3254:3423   */\n      swap3\n      swap2\n      pop\n      pop\n      jump\t// out\n        /* \"#utility.yul\":3429:3525   */\n    tag_76:\n        /* \"#utility.yul\":3466:3473   */\n      0x00\n        /* \"#utility.yul\":3495:3519   */\n      tag_130\n        /* \"#utility.yul\":3513:3518   */\n      dup3\n        /* \"#utility.yul\":3495:3519   */\n      tag_131\n      jump\t// in\n    tag_130:\n        /* \"#utility.yul\":3484:3519   */\n      swap1\n      pop\n        /* \"#utility.yul\":3429:3525   */\n      swap2\n      swap1\n      pop\n      jump\t// out\n        /* \"#utility.yul\":3531:3621   */\n    tag_80:\n        /* \"#utility.yul\":3565:3572   */\n      0x00\n        /* \"#utility.yul\":3608:3613   */\n      dup2\n        /* \"#utility.yul\":3601:3614   */\n      iszero\n        /* \"#utility.yul\":3594:3615   */\n      iszero\n        /* \"#utility.yul\":3583:3615   */\n      swap1\n      pop\n        /* \"#utility.yul\":3531:3621   */\n      swap2\n      swap1\n      pop\n      jump\t// out\n        /* \"#utility.yul\":3627:3777   */\n    tag_84:\n        /* \"#utility.yul\":3664:3671   */\n      0x00\n        /* \"#utility.yul\":3704:3770   */\n      0xffffffffffffffffffffffffffffffffffffffff000000000000000000000000\n        /* \"#utility.yul\":3697:3702   */\n      dup3\n        /* \"#utility.yul\":3693:3771   */\n      and\n        /* \"#utility.yul\":3682:3771   */\n      swap1\n      pop\n        /* \"#utility.yul\":3627:3777   */\n      swap2\n      swap1\n      pop\n      jump\t// out\n        /* \"#utility.yul\":3783:3860   */\n    tag_88:\n        /* \"#utility.yul\":3820:3827   */\n      0x00\n        /* \"#utility.yul\":3849:3854   */\n      dup2\n        /* \"#utility.yul\":3838:3854   */\n      swap1\n      pop\n        /* \"#utility.yul\":3783:3860   */\n      swap2\n      swap1\n      pop\n      jump\t// out\n        /* \"#utility.yul\":3866:3997   */\n    tag_135:\n        /* \"#utility.yul\":3913:3920   */\n      0x00\n        /* \"#utility.yul\":3942:3947   */\n      dup2\n        /* \"#utility.yul\":3931:3947   */\n      swap1\n      pop\n        /* \"#utility.yul\":3948:3991   */\n      tag_137\n        /* \"#utility.yul\":3985:3990   */\n      dup3\n        /* \"#utility.yul\":3948:3991   */\n      tag_138\n      jump\t// in\n    tag_137:\n        /* \"#utility.yul\":3866:3997   */\n      swap2\n      swap1\n      pop\n      jump\t// out\n        /* \"#utility.yul\":4003:4092   */\n    tag_96:\n        /* \"#utility.yul\":4037:4044   */\n      0x00\n        /* \"#utility.yul\":4080:4085   */\n      dup2\n        /* \"#utility.yul\":4077:4078   */\n      0x00\n        /* \"#utility.yul\":4066:4086   */\n      signextend\n        /* \"#utility.yul\":4055:4086   */\n      swap1\n      pop\n        /* \"#utility.yul\":4003:4092   */\n      swap2\n      swap1\n      pop\n      jump\t// out\n        /* \"#utility.yul\":4098:4224   */\n    tag_131:\n        /* \"#utility.yul\":4135:4142   */\n      0x00\n        /* \"#utility.yul\":4175:4217   */\n      0xffffffffffffffffffffffffffffffffffffffff\n        /* \"#utility.yul\":4168:4173   */\n      dup3\n        /* \"#utility.yul\":4164:4218   */\n      and\n        /* \"#utility.yul\":4153:4218   */\n      swap1\n      pop\n        /* \"#utility.yul\":4098:4224   */\n      swap2\n      swap1\n      pop\n      jump\t// out\n        /* \"#utility.yul\":4230:4316   */\n    tag_110:\n        /* \"#utility.yul\":4265:4272   */\n      0x00\n        /* \"#utility.yul\":4305:4309   */\n      0xff\n        /* \"#utility.yul\":4298:4303   */\n      dup3\n        /* \"#utility.yul\":4294:4310   */\n      and\n        /* \"#utility.yul\":4283:4310   */\n      swap1\n      pop\n        /* \"#utility.yul\":4230:4316   */\n      swap2\n      swap1\n      pop\n      jump\t// out\n        /* \"#utility.yul\":4322:4453   */\n    tag_92:\n        /* \"#utility.yul\":4380:4389   */\n      0x00\n        /* \"#utility.yul\":4413:4447   */\n      tag_143\n        /* \"#utility.yul\":4441:4446   */\n      dup3\n        /* \"#utility.yul\":4413:4447   */\n      tag_135\n      jump\t// in\n    tag_143:\n        /* \"#utility.yul\":4400:4447   */\n      swap1\n      pop\n        /* \"#utility.yul\":4322:4453   */\n      swap2\n      swap1\n      pop\n      jump\t// out\n        /* \"#utility.yul\":4459:4766   */\n    tag_104:\n        /* \"#utility.yul\":4527:4528   */\n      0x00\n        /* \"#utility.yul\":4537:4650   */\n    tag_145:\n        /* \"#utility.yul\":4551:4557   */\n      dup4\n        /* \"#utility.yul\":4548:4549   */\n      dup2\n        /* \"#utility.yul\":4545:4558   */\n      lt\n        /* \"#utility.yul\":4537:4650   */\n      iszero\n      tag_147\n      jumpi\n        /* \"#utility.yul\":4636:4637   */\n      dup1\n        /* \"#utility.yul\":4631:4634   */\n      dup3\n        /* \"#utility.yul\":4627:4638   */\n      add\n        /* \"#utility.yul\":4621:4639   */\n      mload\n        /* \"#utility.yul\":4617:4618   */\n      dup2\n        /* \"#utility.yul\":4612:4615   */\n      dup5\n        /* \"#utility.yul\":4608:4619   */\n      add\n        /* \"#utility.yul\":4601:4640   */\n      mstore\n        /* \"#utility.yul\":4573:4575   */\n      0x20\n        /* \"#utility.yul\":4570:4571   */\n      dup2\n        /* \"#utility.yul\":4566:4576   */\n      add\n        /* \"#utility.yul\":4561:4576   */\n      swap1\n      pop\n        /* \"#utility.yul\":4537:4650   */\n      jump(tag_145)\n    tag_147:\n        /* \"#utility.yul\":4668:4674   */\n      dup4\n        /* \"#utility.yul\":4665:4666   */\n      dup2\n        /* \"#utility.yul\":4662:4675   */\n      gt\n        /* \"#utility.yul\":4659:4760   */\n      iszero\n      tag_148\n      jumpi\n        /* \"#utility.yul\":4748:4749   */\n      0x00\n        /* \"#utility.yul\":4739:4745   */\n      dup5\n        /* \"#utility.yul\":4734:4737   */\n      dup5\n        /* \"#utility.yul\":4730:4746   */\n      add\n        /* \"#utility.yul\":4723:4750   */\n      mstore\n        /* \"#utility.yul\":4659:4760   */\n    tag_148:\n        /* \"#utility.yul\":4508:4766   */\n      pop\n        /* \"#utility.yul\":4459:4766   */\n      pop\n      pop\n      pop\n      jump\t// out\n        /* \"#utility.yul\":4772:5092   */\n    tag_64:\n        /* \"#utility.yul\":4816:4822   */\n      0x00\n        /* \"#utility.yul\":4853:4854   */\n      0x02\n        /* \"#utility.yul\":4847:4851   */\n      dup3\n        /* \"#utility.yul\":4843:4855   */\n      div\n        /* \"#utility.yul\":4833:4855   */\n      swap1\n      pop\n        /* \"#utility.yul\":4900:4901   */\n      0x01\n        /* \"#utility.yul\":4894:4898   */\n      dup3\n        /* \"#utility.yul\":4890:4902   */\n      and\n        /* \"#utility.yul\":4921:4939   */\n      dup1\n        /* \"#utility.yul\":4911:4992   */\n      tag_150\n      jumpi\n        /* \"#utility.yul\":4977:4981   */\n      0x7f\n        /* \"#utility.yul\":4969:4975   */\n      dup3\n        /* \"#utility.yul\":4965:4982   */\n      and\n        /* \"#utility.yul\":4955:4982   */\n      swap2\n      pop\n        /* \"#utility.yul\":4911:4992   */\n    tag_150:\n        /* \"#utility.yul\":5039:5041   */\n      0x20\n        /* \"#utility.yul\":5031:5037   */\n      dup3\n        /* \"#utility.yul\":5028:5042   */\n      lt\n        /* \"#utility.yul\":5008:5026   */\n      dup2\n        /* \"#utility.yul\":5005:5043   */\n      eq\n        /* \"#utility.yul\":5002:5086   */\n      iszero\n      tag_151\n      jumpi\n        /* \"#utility.yul\":5058:5076   */\n      tag_152\n      tag_153\n      jump\t// in\n    tag_152:\n        /* \"#utility.yul\":5002:5086   */\n    tag_151:\n        /* \"#utility.yul\":4823:5092   */\n      pop\n        /* \"#utility.yul\":4772:5092   */\n      swap2\n      swap1\n      pop\n      jump\t// out\n        /* \"#utility.yul\":5098:5278   */\n    tag_62:\n        /* \"#utility.yul\":5146:5223   */\n      0x4e487b7100000000000000000000000000000000000000000000000000000000\n        /* \"#utility.yul\":5143:5144   */\n      0x00\n        /* \"#utility.yul\":5136:5224   */\n      mstore\n        /* \"#utility.yul\":5243:5247   */\n      0x21\n        /* \"#utility.yul\":5240:5241   */\n      0x04\n        /* \"#utility.yul\":5233:5248   */\n      mstore\n        /* \"#utility.yul\":5267:5271   */\n      0x24\n        /* \"#utility.yul\":5264:5265   */\n      0x00\n        /* \"#utility.yul\":5257:5272   */\n      revert\n        /* \"#utility.yul\":5284:5464   */\n    tag_153:\n        /* \"#utility.yul\":5332:5409   */\n      0x4e487b7100000000000000000000000000000000000000000000000000000000\n        /* \"#utility.yul\":5329:5330   */\n      0x00\n        /* \"#utility.yul\":5322:5410   */\n      mstore\n        /* \"#utility.yul\":5429:5433   */\n      0x22\n        /* \"#utility.yul\":5426:5427   */\n      0x04\n        /* \"#utility.yul\":5419:5434   */\n      mstore\n        /* \"#utility.yul\":5453:5457   */\n      0x24\n        /* \"#utility.yul\":5450:5451   */\n      0x00\n        /* \"#utility.yul\":5443:5458   */\n      revert\n        /* \"#utility.yul\":5470:5572   */\n    tag_106:\n        /* \"#utility.yul\":5511:5517   */\n      0x00\n        /* \"#utility.yul\":5562:5564   */\n      0x1f\n        /* \"#utility.yul\":5558:5565   */\n      not\n        /* \"#utility.yul\":5553:5555   */\n      0x1f\n        /* \"#utility.yul\":5546:5551   */\n      dup4\n        /* \"#utility.yul\":5542:5556   */\n      add\n        /* \"#utility.yul\":5538:5566   */\n      and\n        /* \"#utility.yul\":5528:5566   */\n      swap1\n      pop\n        /* \"#utility.yul\":5470:5572   */\n      swap2\n      swap1\n      pop\n      jump\t// out\n        /* \"#utility.yul\":5578:5693   */\n    tag_138:\n        /* \"#utility.yul\":5661:5662   */\n      0x02\n        /* \"#utility.yul\":5654:5659   */\n      dup2\n        /* \"#utility.yul\":5651:5663   */\n      lt\n        /* \"#utility.yul\":5641:5687   */\n      tag_158\n      jumpi\n        /* \"#utility.yul\":5667:5685   */\n      tag_159\n      tag_62\n      jump\t// in\n    tag_159:\n        /* \"#utility.yul\":5641:5687   */\n    tag_158:\n        /* \"#utility.yul\":5578:5693   */\n      pop\n      jump\t// out\n\n    auxdata: 0xa2646970667358221220163ef1b1601e1f8e64ba3a97fdc37a951258d76a3373676eb1c8258145d82f3e64736f6c63430008070033\n}\n",
				"bytecode": {
					"linkReferences": {},
					"object": "60806040526003600160006101000a81548160ff021916908360ff1602179055507fffffffffffffffffffffffffffffffffffffffffffffffffffffffffffffffe0600360006101000a81548160ff021916908360000b60ff16021790555060416004556040518060400160405280600f81526020017f4573746f206573207075626c69636f000000000000000000000000000000000081525060069080519060200190620000b092919062000306565b506040518060400160405280600f81526020017f4573746f206573207072697661646f000000000000000000000000000000000081525060079080519060200190620000fe92919062000306565b506001600860016101000a81548160ff0219169083151502179055506000600860026101000a81548160ff021916908315150217905550604051602001620001469062000476565b60405160208183030381529060405280519060200120600b556002604051602001620001729062000476565b6040516020818303038152906040526040516200019091906200045d565b602060405180830381855afa158015620001ae573d6000803e3d6000fd5b5050506040513d601f19601f82011682018060405250810190620001d39190620003cd565b600c556003604051602001620001e99062000476565b6040516020818303038152906040526040516200020791906200045d565b602060405180830381855afa15801562000225573d6000803e3d6000fd5b5050506040515160601b600d60006101000a81548173ffffffffffffffffffffffffffffffffffffffff021916908360601c021790555073617f2e2fd72fd9d5503197092ac168c91465e7f2600f60006101000a81548173ffffffffffffffffffffffffffffffffffffffff021916908373ffffffffffffffffffffffffffffffffffffffff16021790555033601060006101000a81548173ffffffffffffffffffffffffffffffffffffffff021916908373ffffffffffffffffffffffffffffffffffffffff160217905550348015620002ff57600080fd5b506200059b565b8280546200031490620004ee565b90600052602060002090601f01602090048101928262000338576000855562000384565b82601f106200035357805160ff191683800117855562000384565b8280016001018555821562000384579182015b828111156200038357825182559160200191906001019062000366565b5b50905062000393919062000397565b5090565b5b80821115620003b257600081600090555060010162000398565b5090565b600081519050620003c78162000581565b92915050565b600060208284031215620003e657620003e562000553565b5b6000620003f684828501620003b6565b91505092915050565b60006200040c826200048d565b62000418818562000498565b93506200042a818560208601620004b8565b80840191505092915050565b600062000445600b83620004a3565b9150620004528262000558565b600b82019050919050565b60006200046b8284620003ff565b915081905092915050565b6000620004838262000436565b9150819050919050565b600081519050919050565b600081905092915050565b600081905092915050565b6000819050919050565b60005b83811015620004d8578082015181840152602081019050620004bb565b83811115620004e8576000848401525b50505050565b600060028204905060018216806200050757607f821691505b602082108114156200051e576200051d62000524565b5b50919050565b7f4e487b7100000000000000000000000000000000000000000000000000000000600052602260045260246000fd5b600080fd5b7f48656c6c6f20576f726c64000000000000000000000000000000000000000000600082015250565b6200058c81620004ae565b81146200059857600080fd5b50565b61070a80620005ab6000396000f3fe608060405234801561001057600080fd5b50600436106100b45760003560e01c80638a054ac2116100715780638a054ac21461016d5780639eea4a3a1461018b578063af10c810146101a9578063b83d07b7146101b3578063ba33ed7d146101d1578063c7109d04146101db576100b4565b80632b73648d146100b9578063312eef29146100d75780633a36399e146100f55780634df7e3d0146101135780637272eea1146101315780637a68ef7f1461014f575b600080fd5b6100c16101f9565b6040516100ce919061048f565b60405180910390f35b6100df6101ff565b6040516100ec9190610459565b60405180910390f35b6100fd610212565b60405161010a919061043e565b60405180910390f35b61011b610238565b6040516101289190610502565b60405180910390f35b61013961024b565b60405161014691906104aa565b60405180910390f35b610157610262565b6040516101649190610474565b60405180910390f35b610175610275565b60405161018291906104c5565b60405180910390f35b610193610288565b6040516101a0919061043e565b60405180910390f35b6101b16102ae565b005b6101bb6102db565b6040516101c891906104e0565b60405180910390f35b6101d9610369565b005b6101e3610396565b6040516101f0919061048f565b60405180910390f35b600b5481565b600860019054906101000a900460ff1681565b600f60009054906101000a900473ffffffffffffffffffffffffffffffffffffffff1681565b600160009054906101000a900460ff1681565b6000601060149054906101000a900460ff16905090565b600d60009054906101000a900460601b81565b600360009054906101000a900460000b81565b601060009054906101000a900473ffffffffffffffffffffffffffffffffffffffff1681565b6001601060146101000a81548160ff021916908360018111156102d4576102d3610651565b5b0217905550565b600680546102e89061061f565b80601f01602080910402602001604051908101604052809291908181526020018280546103149061061f565b80156103615780601f1061033657610100808354040283529160200191610361565b820191906000526020600020905b81548152906001019060200180831161034457829003601f168201915b505050505081565b6000601060146101000a81548160ff0219169083600181111561038f5761038e610651565b5b0217905550565b600c5481565b6103a581610539565b82525050565b6103b48161054b565b82525050565b6103c381610557565b82525050565b6103d281610583565b82525050565b6103e1816105da565b82525050565b6103f0816105a0565b82525050565b60006104018261051d565b61040b8185610528565b935061041b8185602086016105ec565b610424816106af565b840191505092915050565b610438816105cd565b82525050565b6000602082019050610453600083018461039c565b92915050565b600060208201905061046e60008301846103ab565b92915050565b600060208201905061048960008301846103ba565b92915050565b60006020820190506104a460008301846103c9565b92915050565b60006020820190506104bf60008301846103d8565b92915050565b60006020820190506104da60008301846103e7565b92915050565b600060208201905081810360008301526104fa81846103f6565b905092915050565b6000602082019050610517600083018461042f565b92915050565b600081519050919050565b600082825260208201905092915050565b6000610544826105ad565b9050919050565b60008115159050919050565b60007fffffffffffffffffffffffffffffffffffffffff00000000000000000000000082169050919050565b6000819050919050565b600081905061059b826106c0565b919050565b60008160000b9050919050565b600073ffffffffffffffffffffffffffffffffffffffff82169050919050565b600060ff82169050919050565b60006105e58261058d565b9050919050565b60005b8381101561060a5780820151818401526020810190506105ef565b83811115610619576000848401525b50505050565b6000600282049050600182168061063757607f821691505b6020821081141561064b5761064a610680565b5b50919050565b7f4e487b7100000000000000000000000000000000000000000000000000000000600052602160045260246000fd5b7f4e487b7100000000000000000000000000000000000000000000000000000000600052602260045260246000fd5b6000601f19601f8301169050919050565b600281106106d1576106d0610651565b5b5056fea2646970667358221220163ef1b1601e1f8e64ba3a97fdc37a951258d76a3373676eb1c8258145d82f3e64736f6c63430008070033",
					"opcodes": "PUSH1 0x80 PUSH1 0x40 MSTORE PUSH1 0x3 PUSH1 0x1 PUSH1 0x0 PUSH2 0x100 EXP DUP2 SLOAD DUP2 PUSH1 0xFF MUL NOT AND SWAP1 DUP4 PUSH1 0xFF AND MUL OR SWAP1 SSTORE POP PUSH32 0xFFFFFFFFFFFFFFFFFFFFFFFFFFFFFFFFFFFFFFFFFFFFFFFFFFFFFFFFFFFFFFE0 PUSH1 0x3 PUSH1 0x0 PUSH2 0x100 EXP DUP2 SLOAD DUP2 PUSH1 0xFF MUL NOT AND SWAP1 DUP4 PUSH1 0x0 SIGNEXTEND PUSH1 0xFF AND MUL OR SWAP1 SSTORE POP PUSH1 0x41 PUSH1 0x4 SSTORE PUSH1 0x40 MLOAD DUP1 PUSH1 0x40 ADD PUSH1 0x40 MSTORE DUP1 PUSH1 0xF DUP2 MSTORE PUSH1 0x20 ADD PUSH32 0x4573746F206573207075626C69636F0000000000000000000000000000000000 DUP2 MSTORE POP PUSH1 0x6 SWAP1 DUP1 MLOAD SWAP1 PUSH1 0x20 ADD SWAP1 PUSH3 0xB0 SWAP3 SWAP2 SWAP1 PUSH3 0x306 JUMP JUMPDEST POP PUSH1 0x40 MLOAD DUP1 PUSH1 0x40 ADD PUSH1 0x40 MSTORE DUP1 PUSH1 0xF DUP2 MSTORE PUSH1 0x20 ADD PUSH32 0x4573746F206573207072697661646F0000000000000000000000000000000000 DUP2 MSTORE POP PUSH1 0x7 SWAP1 DUP1 MLOAD SWAP1 PUSH1 0x20 ADD SWAP1 PUSH3 0xFE SWAP3 SWAP2 SWAP1 PUSH3 0x306 JUMP JUMPDEST POP PUSH1 0x1 PUSH1 0x8 PUSH1 0x1 PUSH2 0x100 EXP DUP2 SLOAD DUP2 PUSH1 0xFF MUL NOT AND SWAP1 DUP4 ISZERO ISZERO MUL OR SWAP1 SSTORE POP PUSH1 0x0 PUSH1 0x8 PUSH1 0x2 PUSH2 0x100 EXP DUP2 SLOAD DUP2 PUSH1 0xFF MUL NOT AND SWAP1 DUP4 ISZERO ISZERO MUL OR SWAP1 SSTORE POP PUSH1 0x40 MLOAD PUSH1 0x20 ADD PUSH3 0x146 SWAP1 PUSH3 0x476 JUMP JUMPDEST PUSH1 0x40 MLOAD PUSH1 0x20 DUP2 DUP4 SUB SUB DUP2 MSTORE SWAP1 PUSH1 0x40 MSTORE DUP1 MLOAD SWAP1 PUSH1 0x20 ADD KECCAK256 PUSH1 0xB SSTORE PUSH1 0x2 PUSH1 0x40 MLOAD PUSH1 0x20 ADD PUSH3 0x172 SWAP1 PUSH3 0x476 JUMP JUMPDEST PUSH1 0x40 MLOAD PUSH1 0x20 DUP2 DUP4 SUB SUB DUP2 MSTORE SWAP1 PUSH1 0x40 MSTORE PUSH1 0x40 MLOAD PUSH3 0x190 SWAP2 SWAP1 PUSH3 0x45D JUMP JUMPDEST PUSH1 0x20 PUSH1 0x40 MLOAD DUP1 DUP4 SUB DUP2 DUP6 GAS STATICCALL ISZERO DUP1 ISZERO PUSH3 0x1AE JUMPI RETURNDATASIZE PUSH1 0x0 DUP1 RETURNDATACOPY RETURNDATASIZE PUSH1 0x0 REVERT JUMPDEST POP POP POP PUSH1 0x40 MLOAD RETURNDATASIZE PUSH1 0x1F NOT PUSH1 0x1F DUP3 ADD AND DUP3 ADD DUP1 PUSH1 0x40 MSTORE POP DUP2 ADD SWAP1 PUSH3 0x1D3 SWAP2 SWAP1 PUSH3 0x3CD JUMP JUMPDEST PUSH1 0xC SSTORE PUSH1 0x3 PUSH1 0x40 MLOAD PUSH1 0x20 ADD PUSH3 0x1E9 SWAP1 PUSH3 0x476 JUMP JUMPDEST PUSH1 0x40 MLOAD PUSH1 0x20 DUP2 DUP4 SUB SUB DUP2 MSTORE SWAP1 PUSH1 0x40 MSTORE PUSH1 0x40 MLOAD PUSH3 0x207 SWAP2 SWAP1 PUSH3 0x45D JUMP JUMPDEST PUSH1 0x20 PUSH1 0x40 MLOAD DUP1 DUP4 SUB DUP2 DUP6 GAS STATICCALL ISZERO DUP1 ISZERO PUSH3 0x225 JUMPI RETURNDATASIZE PUSH1 0x0 DUP1 RETURNDATACOPY RETURNDATASIZE PUSH1 0x0 REVERT JUMPDEST POP POP POP PUSH1 0x40 MLOAD MLOAD PUSH1 0x60 SHL PUSH1 0xD PUSH1 0x0 PUSH2 0x100 EXP DUP2 SLOAD DUP2 PUSH20 0xFFFFFFFFFFFFFFFFFFFFFFFFFFFFFFFFFFFFFFFF MUL NOT AND SWAP1 DUP4 PUSH1 0x60 SHR MUL OR SWAP1 SSTORE POP PUSH20 0x617F2E2FD72FD9D5503197092AC168C91465E7F2 PUSH1 0xF PUSH1 0x0 PUSH2 0x100 EXP DUP2 SLOAD DUP2 PUSH20 0xFFFFFFFFFFFFFFFFFFFFFFFFFFFFFFFFFFFFFFFF MUL NOT AND SWAP1 DUP4 PUSH20 0xFFFFFFFFFFFFFFFFFFFFFFFFFFFFFFFFFFFFFFFF AND MUL OR SWAP1 SSTORE POP CALLER PUSH1 0x10 PUSH1 0x0 PUSH2 0x100 EXP DUP2 SLOAD DUP2 PUSH20 0xFFFFFFFFFFFFFFFFFFFFFFFFFFFFFFFFFFFFFFFF MUL NOT AND SWAP1 DUP4 PUSH20 0xFFFFFFFFFFFFFFFFFFFFFFFFFFFFFFFFFFFFFFFF AND MUL OR SWAP1 SSTORE POP CALLVALUE DUP1 ISZERO PUSH3 0x2FF JUMPI PUSH1 0x0 DUP1 REVERT JUMPDEST POP PUSH3 0x59B JUMP JUMPDEST DUP3 DUP1 SLOAD PUSH3 0x314 SWAP1 PUSH3 0x4EE JUMP JUMPDEST SWAP1 PUSH1 0x0 MSTORE PUSH1 0x20 PUSH1 0x0 KECCAK256 SWAP1 PUSH1 0x1F ADD PUSH1 0x20 SWAP1 DIV DUP2 ADD SWAP3 DUP3 PUSH3 0x338 JUMPI PUSH1 0x0 DUP6 SSTORE PUSH3 0x384 JUMP JUMPDEST DUP3 PUSH1 0x1F LT PUSH3 0x353 JUMPI DUP1 MLOAD PUSH1 0xFF NOT AND DUP4 DUP1 ADD OR DUP6 SSTORE PUSH3 0x384 JUMP JUMPDEST DUP3 DUP1 ADD PUSH1 0x1 ADD DUP6 SSTORE DUP3 ISZERO PUSH3 0x384 JUMPI SWAP2 DUP3 ADD JUMPDEST DUP3 DUP2 GT ISZERO PUSH3 0x383 JUMPI DUP3 MLOAD DUP3 SSTORE SWAP2 PUSH1 0x20 ADD SWAP2 SWAP1 PUSH1 0x1 ADD SWAP1 PUSH3 0x366 JUMP JUMPDEST JUMPDEST POP SWAP1 POP PUSH3 0x393 SWAP2 SWAP1 PUSH3 0x397 JUMP JUMPDEST POP SWAP1 JUMP JUMPDEST JUMPDEST DUP1 DUP3 GT ISZERO PUSH3 0x3B2 JUMPI PUSH1 0x0 DUP2 PUSH1 0x0 SWAP1 SSTORE POP PUSH1 0x1 ADD PUSH3 0x398 JUMP JUMPDEST POP SWAP1 JUMP JUMPDEST PUSH1 0x0 DUP2 MLOAD SWAP1 POP PUSH3 0x3C7 DUP2 PUSH3 0x581 JUMP JUMPDEST SWAP3 SWAP2 POP POP JUMP JUMPDEST PUSH1 0x0 PUSH1 0x20 DUP3 DUP5 SUB SLT ISZERO PUSH3 0x3E6 JUMPI PUSH3 0x3E5 PUSH3 0x553 JUMP JUMPDEST JUMPDEST PUSH1 0x0 PUSH3 0x3F6 DUP5 DUP3 DUP6 ADD PUSH3 0x3B6 JUMP JUMPDEST SWAP2 POP POP SWAP3 SWAP2 POP POP JUMP JUMPDEST PUSH1 0x0 PUSH3 0x40C DUP3 PUSH3 0x48D JUMP JUMPDEST PUSH3 0x418 DUP2 DUP6 PUSH3 0x498 JUMP JUMPDEST SWAP4 POP PUSH3 0x42A DUP2 DUP6 PUSH1 0x20 DUP7 ADD PUSH3 0x4B8 JUMP JUMPDEST DUP1 DUP5 ADD SWAP2 POP POP SWAP3 SWAP2 POP POP JUMP JUMPDEST PUSH1 0x0 PUSH3 0x445 PUSH1 0xB DUP4 PUSH3 0x4A3 JUMP JUMPDEST SWAP2 POP PUSH3 0x452 DUP3 PUSH3 0x558 JUMP JUMPDEST PUSH1 0xB DUP3 ADD SWAP1 POP SWAP2 SWAP1 POP JUMP JUMPDEST PUSH1 0x0 PUSH3 0x46B DUP3 DUP5 PUSH3 0x3FF JUMP JUMPDEST SWAP2 POP DUP2 SWAP1 POP SWAP3 SWAP2 POP POP JUMP JUMPDEST PUSH1 0x0 PUSH3 0x483 DUP3 PUSH3 0x436 JUMP JUMPDEST SWAP2 POP DUP2 SWAP1 POP SWAP2 SWAP1 POP JUMP JUMPDEST PUSH1 0x0 DUP2 MLOAD SWAP1 POP SWAP2 SWAP1 POP JUMP JUMPDEST PUSH1 0x0 DUP2 SWAP1 POP SWAP3 SWAP2 POP POP JUMP JUMPDEST PUSH1 0x0 DUP2 SWAP1 POP SWAP3 SWAP2 POP POP JUMP JUMPDEST PUSH1 0x0 DUP2 SWAP1 POP SWAP2 SWAP1 POP JUMP JUMPDEST PUSH1 0x0 JUMPDEST DUP4 DUP2 LT ISZERO PUSH3 0x4D8 JUMPI DUP1 DUP3 ADD MLOAD DUP2 DUP5 ADD MSTORE PUSH1 0x20 DUP2 ADD SWAP1 POP PUSH3 0x4BB JUMP JUMPDEST DUP4 DUP2 GT ISZERO PUSH3 0x4E8 JUMPI PUSH1 0x0 DUP5 DUP5 ADD MSTORE JUMPDEST POP POP POP POP JUMP JUMPDEST PUSH1 0x0 PUSH1 0x2 DUP3 DIV SWAP1 POP PUSH1 0x1 DUP3 AND DUP1 PUSH3 0x507 JUMPI PUSH1 0x7F DUP3 AND SWAP2 POP JUMPDEST PUSH1 0x20 DUP3 LT DUP2 EQ ISZERO PUSH3 0x51E JUMPI PUSH3 0x51D PUSH3 0x524 JUMP JUMPDEST JUMPDEST POP SWAP2 SWAP1 POP JUMP JUMPDEST PUSH32 0x4E487B7100000000000000000000000000000000000000000000000000000000 PUSH1 0x0 MSTORE PUSH1 0x22 PUSH1 0x4 MSTORE PUSH1 0x24 PUSH1 0x0 REVERT JUMPDEST PUSH1 0x0 DUP1 REVERT JUMPDEST PUSH32 0x48656C6C6F20576F726C64000000000000000000000000000000000000000000 PUSH1 0x0 DUP3 ADD MSTORE POP JUMP JUMPDEST PUSH3 0x58C DUP2 PUSH3 0x4AE JUMP JUMPDEST DUP2 EQ PUSH3 0x598 JUMPI PUSH1 0x0 DUP1 REVERT JUMPDEST POP JUMP JUMPDEST PUSH2 0x70A DUP1 PUSH3 0x5AB PUSH1 0x0 CODECOPY PUSH1 0x0 RETURN INVALID PUSH1 0x80 PUSH1 0x40 MSTORE CALLVALUE DUP1 ISZERO PUSH2 0x10 JUMPI PUSH1 0x0 DUP1 REVERT JUMPDEST POP PUSH1 0x4 CALLDATASIZE LT PUSH2 0xB4 JUMPI PUSH1 0x0 CALLDATALOAD PUSH1 0xE0 SHR DUP1 PUSH4 0x8A054AC2 GT PUSH2 0x71 JUMPI DUP1 PUSH4 0x8A054AC2 EQ PUSH2 0x16D JUMPI DUP1 PUSH4 0x9EEA4A3A EQ PUSH2 0x18B JUMPI DUP1 PUSH4 0xAF10C810 EQ PUSH2 0x1A9 JUMPI DUP1 PUSH4 0xB83D07B7 EQ PUSH2 0x1B3 JUMPI DUP1 PUSH4 0xBA33ED7D EQ PUSH2 0x1D1 JUMPI DUP1 PUSH4 0xC7109D04 EQ PUSH2 0x1DB JUMPI PUSH2 0xB4 JUMP JUMPDEST DUP1 PUSH4 0x2B73648D EQ PUSH2 0xB9 JUMPI DUP1 PUSH4 0x312EEF29 EQ PUSH2 0xD7 JUMPI DUP1 PUSH4 0x3A36399E EQ PUSH2 0xF5 JUMPI DUP1 PUSH4 0x4DF7E3D0 EQ PUSH2 0x113 JUMPI DUP1 PUSH4 0x7272EEA1 EQ PUSH2 0x131 JUMPI DUP1 PUSH4 0x7A68EF7F EQ PUSH2 0x14F JUMPI JUMPDEST PUSH1 0x0 DUP1 REVERT JUMPDEST PUSH2 0xC1 PUSH2 0x1F9 JUMP JUMPDEST PUSH1 0x40 MLOAD PUSH2 0xCE SWAP2 SWAP1 PUSH2 0x48F JUMP JUMPDEST PUSH1 0x40 MLOAD DUP1 SWAP2 SUB SWAP1 RETURN JUMPDEST PUSH2 0xDF PUSH2 0x1FF JUMP JUMPDEST PUSH1 0x40 MLOAD PUSH2 0xEC SWAP2 SWAP1 PUSH2 0x459 JUMP JUMPDEST PUSH1 0x40 MLOAD DUP1 SWAP2 SUB SWAP1 RETURN JUMPDEST PUSH2 0xFD PUSH2 0x212 JUMP JUMPDEST PUSH1 0x40 MLOAD PUSH2 0x10A SWAP2 SWAP1 PUSH2 0x43E JUMP JUMPDEST PUSH1 0x40 MLOAD DUP1 SWAP2 SUB SWAP1 RETURN JUMPDEST PUSH2 0x11B PUSH2 0x238 JUMP JUMPDEST PUSH1 0x40 MLOAD PUSH2 0x128 SWAP2 SWAP1 PUSH2 0x502 JUMP JUMPDEST PUSH1 0x40 MLOAD DUP1 SWAP2 SUB SWAP1 RETURN JUMPDEST PUSH2 0x139 PUSH2 0x24B JUMP JUMPDEST PUSH1 0x40 MLOAD PUSH2 0x146 SWAP2 SWAP1 PUSH2 0x4AA JUMP JUMPDEST PUSH1 0x40 MLOAD DUP1 SWAP2 SUB SWAP1 RETURN JUMPDEST PUSH2 0x157 PUSH2 0x262 JUMP JUMPDEST PUSH1 0x40 MLOAD PUSH2 0x164 SWAP2 SWAP1 PUSH2 0x474 JUMP JUMPDEST PUSH1 0x40 MLOAD DUP1 SWAP2 SUB SWAP1 RETURN JUMPDEST PUSH2 0x175 PUSH2 0x275 JUMP JUMPDEST PUSH1 0x40 MLOAD PUSH2 0x182 SWAP2 SWAP1 PUSH2 0x4C5 JUMP JUMPDEST PUSH1 0x40 MLOAD DUP1 SWAP2 SUB SWAP1 RETURN JUMPDEST PUSH2 0x193 PUSH2 0x288 JUMP JUMPDEST PUSH1 0x40 MLOAD PUSH2 0x1A0 SWAP2 SWAP1 PUSH2 0x43E JUMP JUMPDEST PUSH1 0x40 MLOAD DUP1 SWAP2 SUB SWAP1 RETURN JUMPDEST PUSH2 0x1B1 PUSH2 0x2AE JUMP JUMPDEST STOP JUMPDEST PUSH2 0x1BB PUSH2 0x2DB JUMP JUMPDEST PUSH1 0x40 MLOAD PUSH2 0x1C8 SWAP2 SWAP1 PUSH2 0x4E0 JUMP JUMPDEST PUSH1 0x40 MLOAD DUP1 SWAP2 SUB SWAP1 RETURN JUMPDEST PUSH2 0x1D9 PUSH2 0x369 JUMP JUMPDEST STOP JUMPDEST PUSH2 0x1E3 PUSH2 0x396 JUMP JUMPDEST PUSH1 0x40 MLOAD PUSH2 0x1F0 SWAP2 SWAP1 PUSH2 0x48F JUMP JUMPDEST PUSH1 0x40 MLOAD DUP1 SWAP2 SUB SWAP1 RETURN JUMPDEST PUSH1 0xB SLOAD DUP2 JUMP JUMPDEST PUSH1 0x8 PUSH1 0x1 SWAP1 SLOAD SWAP1 PUSH2 0x100 EXP SWAP1 DIV PUSH1 0xFF AND DUP2 JUMP JUMPDEST PUSH1 0xF PUSH1 0x0 SWAP1 SLOAD SWAP1 PUSH2 0x100 EXP SWAP1 DIV PUSH20 0xFFFFFFFFFFFFFFFFFFFFFFFFFFFFFFFFFFFFFFFF AND DUP2 JUMP JUMPDEST PUSH1 0x1 PUSH1 0x0 SWAP1 SLOAD SWAP1 PUSH2 0x100 EXP SWAP1 DIV PUSH1 0xFF AND DUP2 JUMP JUMPDEST PUSH1 0x0 PUSH1 0x10 PUSH1 0x14 SWAP1 SLOAD SWAP1 PUSH2 0x100 EXP SWAP1 DIV PUSH1 0xFF AND SWAP1 POP SWAP1 JUMP JUMPDEST PUSH1 0xD PUSH1 0x0 SWAP1 SLOAD SWAP1 PUSH2 0x100 EXP SWAP1 DIV PUSH1 0x60 SHL DUP2 JUMP JUMPDEST PUSH1 0x3 PUSH1 0x0 SWAP1 SLOAD SWAP1 PUSH2 0x100 EXP SWAP1 DIV PUSH1 0x0 SIGNEXTEND DUP2 JUMP JUMPDEST PUSH1 0x10 PUSH1 0x0 SWAP1 SLOAD SWAP1 PUSH2 0x100 EXP SWAP1 DIV PUSH20 0xFFFFFFFFFFFFFFFFFFFFFFFFFFFFFFFFFFFFFFFF AND DUP2 JUMP JUMPDEST PUSH1 0x1 PUSH1 0x10 PUSH1 0x14 PUSH2 0x100 EXP DUP2 SLOAD DUP2 PUSH1 0xFF MUL NOT AND SWAP1 DUP4 PUSH1 0x1 DUP2 GT ISZERO PUSH2 0x2D4 JUMPI PUSH2 0x2D3 PUSH2 0x651 JUMP JUMPDEST JUMPDEST MUL OR SWAP1 SSTORE POP JUMP JUMPDEST PUSH1 0x6 DUP1 SLOAD PUSH2 0x2E8 SWAP1 PUSH2 0x61F JUMP JUMPDEST DUP1 PUSH1 0x1F ADD PUSH1 0x20 DUP1 SWAP2 DIV MUL PUSH1 0x20 ADD PUSH1 0x40 MLOAD SWAP1 DUP2 ADD PUSH1 0x40 MSTORE DUP1 SWAP3 SWAP2 SWAP1 DUP2 DUP2 MSTORE PUSH1 0x20 ADD DUP3 DUP1 SLOAD PUSH2 0x314 SWAP1 PUSH2 0x61F JUMP JUMPDEST DUP1 ISZERO PUSH2 0x361 JUMPI DUP1 PUSH1 0x1F LT PUSH2 0x336 JUMPI PUSH2 0x100 DUP1 DUP4 SLOAD DIV MUL DUP4 MSTORE SWAP2 PUSH1 0x20 ADD SWAP2 PUSH2 0x361 JUMP JUMPDEST DUP3 ADD SWAP2 SWAP1 PUSH1 0x0 MSTORE PUSH1 0x20 PUSH1 0x0 KECCAK256 SWAP1 JUMPDEST DUP2 SLOAD DUP2 MSTORE SWAP1 PUSH1 0x1 ADD SWAP1 PUSH1 0x20 ADD DUP1 DUP4 GT PUSH2 0x344 JUMPI DUP3 SWAP1 SUB PUSH1 0x1F AND DUP3 ADD SWAP2 JUMPDEST POP POP POP POP POP DUP2 JUMP JUMPDEST PUSH1 0x0 PUSH1 0x10 PUSH1 0x14 PUSH2 0x100 EXP DUP2 SLOAD DUP2 PUSH1 0xFF MUL NOT AND SWAP1 DUP4 PUSH1 0x1 DUP2 GT ISZERO PUSH2 0x38F JUMPI PUSH2 0x38E PUSH2 0x651 JUMP JUMPDEST JUMPDEST MUL OR SWAP1 SSTORE POP JUMP JUMPDEST PUSH1 0xC SLOAD DUP2 JUMP JUMPDEST PUSH2 0x3A5 DUP2 PUSH2 0x539 JUMP JUMPDEST DUP3 MSTORE POP POP JUMP JUMPDEST PUSH2 0x3B4 DUP2 PUSH2 0x54B JUMP JUMPDEST DUP3 MSTORE POP POP JUMP JUMPDEST PUSH2 0x3C3 DUP2 PUSH2 0x557 JUMP JUMPDEST DUP3 MSTORE POP POP JUMP JUMPDEST PUSH2 0x3D2 DUP2 PUSH2 0x583 JUMP JUMPDEST DUP3 MSTORE POP POP JUMP JUMPDEST PUSH2 0x3E1 DUP2 PUSH2 0x5DA JUMP JUMPDEST DUP3 MSTORE POP POP JUMP JUMPDEST PUSH2 0x3F0 DUP2 PUSH2 0x5A0 JUMP JUMPDEST DUP3 MSTORE POP POP JUMP JUMPDEST PUSH1 0x0 PUSH2 0x401 DUP3 PUSH2 0x51D JUMP JUMPDEST PUSH2 0x40B DUP2 DUP6 PUSH2 0x528 JUMP JUMPDEST SWAP4 POP PUSH2 0x41B DUP2 DUP6 PUSH1 0x20 DUP7 ADD PUSH2 0x5EC JUMP JUMPDEST PUSH2 0x424 DUP2 PUSH2 0x6AF JUMP JUMPDEST DUP5 ADD SWAP2 POP POP SWAP3 SWAP2 POP POP JUMP JUMPDEST PUSH2 0x438 DUP2 PUSH2 0x5CD JUMP JUMPDEST DUP3 MSTORE POP POP JUMP JUMPDEST PUSH1 0x0 PUSH1 0x20 DUP3 ADD SWAP1 POP PUSH2 0x453 PUSH1 0x0 DUP4 ADD DUP5 PUSH2 0x39C JUMP JUMPDEST SWAP3 SWAP2 POP POP JUMP JUMPDEST PUSH1 0x0 PUSH1 0x20 DUP3 ADD SWAP1 POP PUSH2 0x46E PUSH1 0x0 DUP4 ADD DUP5 PUSH2 0x3AB JUMP JUMPDEST SWAP3 SWAP2 POP POP JUMP JUMPDEST PUSH1 0x0 PUSH1 0x20 DUP3 ADD SWAP1 POP PUSH2 0x489 PUSH1 0x0 DUP4 ADD DUP5 PUSH2 0x3BA JUMP JUMPDEST SWAP3 SWAP2 POP POP JUMP JUMPDEST PUSH1 0x0 PUSH1 0x20 DUP3 ADD SWAP1 POP PUSH2 0x4A4 PUSH1 0x0 DUP4 ADD DUP5 PUSH2 0x3C9 JUMP JUMPDEST SWAP3 SWAP2 POP POP JUMP JUMPDEST PUSH1 0x0 PUSH1 0x20 DUP3 ADD SWAP1 POP PUSH2 0x4BF PUSH1 0x0 DUP4 ADD DUP5 PUSH2 0x3D8 JUMP JUMPDEST SWAP3 SWAP2 POP POP JUMP JUMPDEST PUSH1 0x0 PUSH1 0x20 DUP3 ADD SWAP1 POP PUSH2 0x4DA PUSH1 0x0 DUP4 ADD DUP5 PUSH2 0x3E7 JUMP JUMPDEST SWAP3 SWAP2 POP POP JUMP JUMPDEST PUSH1 0x0 PUSH1 0x20 DUP3 ADD SWAP1 POP DUP2 DUP2 SUB PUSH1 0x0 DUP4 ADD MSTORE PUSH2 0x4FA DUP2 DUP5 PUSH2 0x3F6 JUMP JUMPDEST SWAP1 POP SWAP3 SWAP2 POP POP JUMP JUMPDEST PUSH1 0x0 PUSH1 0x20 DUP3 ADD SWAP1 POP PUSH2 0x517 PUSH1 0x0 DUP4 ADD DUP5 PUSH2 0x42F JUMP JUMPDEST SWAP3 SWAP2 POP POP JUMP JUMPDEST PUSH1 0x0 DUP2 MLOAD SWAP1 POP SWAP2 SWAP1 POP JUMP JUMPDEST PUSH1 0x0 DUP3 DUP3 MSTORE PUSH1 0x20 DUP3 ADD SWAP1 POP SWAP3 SWAP2 POP POP JUMP JUMPDEST PUSH1 0x0 PUSH2 0x544 DUP3 PUSH2 0x5AD JUMP JUMPDEST SWAP1 POP SWAP2 SWAP1 POP JUMP JUMPDEST PUSH1 0x0 DUP2 ISZERO ISZERO SWAP1 POP SWAP2 SWAP1 POP JUMP JUMPDEST PUSH1 0x0 PUSH32 0xFFFFFFFFFFFFFFFFFFFFFFFFFFFFFFFFFFFFFFFF000000000000000000000000 DUP3 AND SWAP1 POP SWAP2 SWAP1 POP JUMP JUMPDEST PUSH1 0x0 DUP2 SWAP1 POP SWAP2 SWAP1 POP JUMP JUMPDEST PUSH1 0x0 DUP2 SWAP1 POP PUSH2 0x59B DUP3 PUSH2 0x6C0 JUMP JUMPDEST SWAP2 SWAP1 POP JUMP JUMPDEST PUSH1 0x0 DUP2 PUSH1 0x0 SIGNEXTEND SWAP1 POP SWAP2 SWAP1 POP JUMP JUMPDEST PUSH1 0x0 PUSH20 0xFFFFFFFFFFFFFFFFFFFFFFFFFFFFFFFFFFFFFFFF DUP3 AND SWAP1 POP SWAP2 SWAP1 POP JUMP JUMPDEST PUSH1 0x0 PUSH1 0xFF DUP3 AND SWAP1 POP SWAP2 SWAP1 POP JUMP JUMPDEST PUSH1 0x0 PUSH2 0x5E5 DUP3 PUSH2 0x58D JUMP JUMPDEST SWAP1 POP SWAP2 SWAP1 POP JUMP JUMPDEST PUSH1 0x0 JUMPDEST DUP4 DUP2 LT ISZERO PUSH2 0x60A JUMPI DUP1 DUP3 ADD MLOAD DUP2 DUP5 ADD MSTORE PUSH1 0x20 DUP2 ADD SWAP1 POP PUSH2 0x5EF JUMP JUMPDEST DUP4 DUP2 GT ISZERO PUSH2 0x619 JUMPI PUSH1 0x0 DUP5 DUP5 ADD MSTORE JUMPDEST POP POP POP POP JUMP JUMPDEST PUSH1 0x0 PUSH1 0x2 DUP3 DIV SWAP1 POP PUSH1 0x1 DUP3 AND DUP1 PUSH2 0x637 JUMPI PUSH1 0x7F DUP3 AND SWAP2 POP JUMPDEST PUSH1 0x20 DUP3 LT DUP2 EQ ISZERO PUSH2 0x64B JUMPI PUSH2 0x64A PUSH2 0x680 JUMP JUMPDEST JUMPDEST POP SWAP2 SWAP1 POP JUMP JUMPDEST PUSH32 0x4E487B7100000000000000000000000000000000000000000000000000000000 PUSH1 0x0 MSTORE PUSH1 0x21 PUSH1 0x4 MSTORE PUSH1 0x24 PUSH1 0x0 REVERT JUMPDEST PUSH32 0x4E487B7100000000000000000000000000000000000000000000000000000000 PUSH1 0x0 MSTORE PUSH1 0x22 PUSH1 0x4 MSTORE PUSH1 0x24 PUSH1 0x0 REVERT JUMPDEST PUSH1 0x0 PUSH1 0x1F NOT PUSH1 0x1F DUP4 ADD AND SWAP1 POP SWAP2 SWAP1 POP JUMP JUMPDEST PUSH1 0x2 DUP2 LT PUSH2 0x6D1 JUMPI PUSH2 0x6D0 PUSH2 0x651 JUMP JUMPDEST JUMPDEST POP JUMP INVALID LOG2 PUSH5 0x6970667358 0x22 SLT KECCAK256 AND RETURNDATACOPY CALL 0xB1 PUSH1 0x1E 0x1F DUP15 PUSH5 0xBA3A97FDC3 PUSH27 0x951258D76A3373676EB1C8258145D82F3E64736F6C634300080700 CALLER "
				},
				"gasEstimates": {
					"creation": {
						"codeDepositCost": "360400",
						"executionCost": "infinite",
						"totalCost": "infinite"
					},
					"external": {
						"address1()": "2559",
						"address2()": "2536",
						"b()": "2538",
						"boolean_true()": "2544",
						"d()": "2475",
						"displayState()": "2707",
						"hashing_keccak256()": "2430",
						"hashing_ripemd160()": "2582",
						"hashing_sha256()": "2539",
						"str_public()": "infinite",
						"turnOff()": "24525",
						"turnOn()": "24569"
					}
				},
				"methodIdentifiers": {
					"address1()": "3a36399e",
					"address2()": "9eea4a3a",
					"b()": "4df7e3d0",
					"boolean_true()": "312eef29",
					"d()": "8a054ac2",
					"displayState()": "7272eea1",
					"hashing_keccak256()": "2b73648d",
					"hashing_ripemd160()": "7a68ef7f",
					"hashing_sha256()": "c7109d04",
					"str_public()": "b83d07b7",
					"turnOff()": "af10c810",
					"turnOn()": "ba33ed7d"
				}
			},
			"storageLayout": {
				"storage": [
					{
						"astId": 3,
						"contract": "variables_modifiers.sol:variables_modifiers",
						"label": "a",
						"offset": 0,
						"slot": "0",
						"type": "t_uint256"
					},
					{
						"astId": 6,
						"contract": "variables_modifiers.sol:variables_modifiers",
						"label": "b",
						"offset": 0,
						"slot": "1",
						"type": "t_uint8"
					},
					{
						"astId": 8,
						"contract": "variables_modifiers.sol:variables_modifiers",
						"label": "c",
						"offset": 0,
						"slot": "2",
						"type": "t_int256"
					},
					{
						"astId": 12,
						"contract": "variables_modifiers.sol:variables_modifiers",
						"label": "d",
						"offset": 0,
						"slot": "3",
						"type": "t_int8"
					},
					{
						"astId": 15,
						"contract": "variables_modifiers.sol:variables_modifiers",
						"label": "e",
						"offset": 0,
						"slot": "4",
						"type": "t_int256"
					},
					{
						"astId": 17,
						"contract": "variables_modifiers.sol:variables_modifiers",
						"label": "str",
						"offset": 0,
						"slot": "5",
						"type": "t_string_storage"
					},
					{
						"astId": 20,
						"contract": "variables_modifiers.sol:variables_modifiers",
						"label": "str_public",
						"offset": 0,
						"slot": "6",
						"type": "t_string_storage"
					},
					{
						"astId": 23,
						"contract": "variables_modifiers.sol:variables_modifiers",
						"label": "str_private",
						"offset": 0,
						"slot": "7",
						"type": "t_string_storage"
					},
					{
						"astId": 25,
						"contract": "variables_modifiers.sol:variables_modifiers",
						"label": "boolean",
						"offset": 0,
						"slot": "8",
						"type": "t_bool"
					},
					{
						"astId": 28,
						"contract": "variables_modifiers.sol:variables_modifiers",
						"label": "boolean_true",
						"offset": 1,
						"slot": "8",
						"type": "t_bool"
					},
					{
						"astId": 31,
						"contract": "variables_modifiers.sol:variables_modifiers",
						"label": "boolean_false",
						"offset": 2,
						"slot": "8",
						"type": "t_bool"
					},
					{
						"astId": 33,
						"contract": "variables_modifiers.sol:variables_modifiers",
						"label": "first_bytes",
						"offset": 0,
						"slot": "9",
						"type": "t_bytes32"
					},
					{
						"astId": 35,
						"contract": "variables_modifiers.sol:variables_modifiers",
						"label": "second_bytes",
						"offset": 0,
						"slot": "10",
						"type": "t_bytes4"
					},
					{
						"astId": 43,
						"contract": "variables_modifiers.sol:variables_modifiers",
						"label": "hashing_keccak256",
						"offset": 0,
						"slot": "11",
						"type": "t_bytes32"
					},
					{
						"astId": 51,
						"contract": "variables_modifiers.sol:variables_modifiers",
						"label": "hashing_sha256",
						"offset": 0,
						"slot": "12",
						"type": "t_bytes32"
					},
					{
						"astId": 59,
						"contract": "variables_modifiers.sol:variables_modifiers",
						"label": "hashing_ripemd160",
						"offset": 0,
						"slot": "13",
						"type": "t_bytes20"
					},
					{
						"astId": 61,
						"contract": "variables_modifiers.sol:variables_modifiers",
						"label": "my_address",
						"offset": 0,
						"slot": "14",
						"type": "t_address"
					},
					{
						"astId": 64,
						"contract": "variables_modifiers.sol:variables_modifiers",
						"label": "address1",
						"offset": 0,
						"slot": "15",
						"type": "t_address"
					},
					{
						"astId": 68,
						"contract": "variables_modifiers.sol:variables_modifiers",
						"label": "address2",
						"offset": 0,
						"slot": "16",
						"type": "t_address"
					},
					{
						"astId": 74,
						"contract": "variables_modifiers.sol:variables_modifiers",
						"label": "state",
						"offset": 20,
						"slot": "16",
						"type": "t_enum(options)71"
					}
				],
				"types": {
					"t_address": {
						"encoding": "inplace",
						"label": "address",
						"numberOfBytes": "20"
					},
					"t_bool": {
						"encoding": "inplace",
						"label": "bool",
						"numberOfBytes": "1"
					},
					"t_bytes20": {
						"encoding": "inplace",
						"label": "bytes20",
						"numberOfBytes": "20"
					},
					"t_bytes32": {
						"encoding": "inplace",
						"label": "bytes32",
						"numberOfBytes": "32"
					},
					"t_bytes4": {
						"encoding": "inplace",
						"label": "bytes4",
						"numberOfBytes": "4"
					},
					"t_enum(options)71": {
						"encoding": "inplace",
						"label": "enum variables_modifiers.options",
						"numberOfBytes": "1"
					},
					"t_int256": {
						"encoding": "inplace",
						"label": "int256",
						"numberOfBytes": "32"
					},
					"t_int8": {
						"encoding": "inplace",
						"label": "int8",
						"numberOfBytes": "1"
					},
					"t_string_storage": {
						"encoding": "bytes",
						"label": "string",
						"numberOfBytes": "32"
					},
					"t_uint256": {
						"encoding": "inplace",
						"label": "uint256",
						"numberOfBytes": "32"
					},
					"t_uint8": {
						"encoding": "inplace",
						"label": "uint8",
						"numberOfBytes": "1"
					}
				}
			},
			"userdoc": {
				"kind": "user",
				"methods": {},
				"version": 1
			}
		}
	}
}